:020000040800F2
:10400000D00C002079420008037500088F73000867
:1040100001750008A15E0008F979000800000000A1
:10402000000000000000000000000000857900088A
:10403000DD5E00080000000039780008877900087C
:1040400093420008934200089342000893420008FC
:1040500093420008934200089342000893420008EC
:1040600093420008934200089342000893420008DC
:1040700093420008934200089342000893420008CC
:1040800093420008934200089342000893420008BC
:10409000ED7900089342000893420008934200081B
:1040A000934200089342000893420008934200089C
:1040B000934200089342000893420008934200088C
:1040C000934200089342000893420008934200087C
:1040D000934200089342000893420008934200086C
:1040E000934200089342000893420008934200085C
:1040F000934200089342000893420008934200084C
:10410000934200089342000893420008934200083B
:10411000934200089342000893420008934200082B
:10412000934200089342000893420008934200081B
:1041300000F002F800F090F80AA090E8000C824429
:104140008344AAF10107DA4501D100F085F8AFF206
:10415000090EBAE80F0013F0010F18BFFB1A43F065
:10416000010318477845000098450000103A24BF25
:1041700078C878C1FAD8520724BF30C830C144BFCC
:1041800004680C607047000000230024002500260E
:10419000103A28BF78C1FBD8520728BF30C148BFAA
:1041A0000B6070476E2900F0AF81702900F0F98232
:1041B000662903F0EB86652903F0E886672903F09A
:1041C000E586612903F0E48603681B0A28BF41F0F5
:1041D0008001692900F05C81642900F0598175290A
:1041E00000F056816F2900F08682782900F0C582A0
:1041F000E92900F02182E42900F01E82F52900F06F
:104200001B82EF2900F08382F82900F0C482036842
:10421000DB0928BF41F08001632900F0F987732989
:1042200000F0FE87E32901F00980F32901F00E80F8
:10423000002070471FB501F05BF80400002000214A
:1042400003F08EFE401C60600020002103F072FE2F
:10425000E0601FBD10B510BD01F01CF81146FFF75E
:10426000E9FF03F04DFC01F0F9F803B4FFF7F2FFAA
:1042700003BC01F041F900000948804709480047A4
:10428000FEE7FEE7FEE7FEE7FEE7FEE7FEE7FEE706
:10429000FEE7FEE704480549054A064B7047000063
:1042A000E979000831410008D0060020D00C002038
:1042B000D0080020D00800207CB51D4616460C0012
:1042C000009001D02044401E074B7B442A4669469B
:1042D0000190304600F031F905461CB100206946D6
:1042E00000F03EF928467CBD9D020000032A40F202
:1042F000308010F0030C00F0158011F8013BBCF188
:10430000020F624498BF11F801CB00F8013B38BF9F
:1043100011F8013BA2F1040298BF00F801CB38BFAD
:1043200000F8013B11F0030300F00A83083AC0F0E3
:10433000088051F8043B083A51F804CBA0E8081073
:10434000F5E7121D5CBF51F8043B40F8043BAFF3A6
:104350000080D20724BF11F8013B11F801CB48BF00
:1043600011F8012B24BF00F8013B00F801CB48BF36
:1043700000F8012B70474FF0000200B51346944639
:104380009646203922BFA0E80C50A0E80C50B1F1AD
:104390002001BFF4F7AF090728BFA0E80C5048BFC1
:1043A0000CC05DF804EB890028BF40F8042B08BF5F
:1043B000704748BF20F8022B11F0804F18BF00F85B
:1043C000012B704770477047704770B50446856988
:1043D0000068C10601D5302600E02026C00707D0BE
:1043E00070BDD4E9012130469047206A401C20620C
:1043F0006D1EF6D570BD70B5044685690078C0079E
:1044000007D170BDD4E9012120209047206A401CCB
:1044100020626D1EF6D570BD09684A0501D540B20F
:104420007047C905FCD500B2704709684A0501D537
:10443000C0B27047C905FCD580B2704770B50C4654
:104440000546012A05D02878800600D5EA690023B0
:1044500002E0012305E05B1C934202D2E05C0028ED
:10446000F9D1A869E618C01AA861286A1844286218
:104470002846FFF7AAFF04E0D5E9012114F8010B53
:104480009047B442F8D32846FFF7B5FF70BD00004F
:104490002DE9F0410646002410687529314616A51D
:1044A00010D0FFF7B9FF002802DA404213A507E059
:1044B00031688A0701D512A502E0490704D511A584
:1044C000012401E0FFF7B1FF00210A2206F12407D1
:1044D00009E0B0FBF2FCB0FBF2F302FB1C00303051
:1044E00078541846491C0028F3D123462A46304602
:1044F000BDE8F04100F09BBA000000002D00000074
:104500002B0000002000000011680268006A5305BB
:1045100001D508700AE0D30501D5088006E013062E
:1045200003D5C217C1E9000200E00860012070470E
:1045300001694A1C02610878704700B58FB0CDE967
:1045400001310021059105497944CDE90310114657
:10455000684600F031F90FB000BD0000E5FFFFFF35
:104560000A6802F8010B0A607047D1E900239A42F9
:1045700002D2531C0B601070704700002DE9FF5FE2
:1045800015468A460446DFF8AC80F8440027D8E98F
:1045900000103E46CDE9001010E03AF816106A46C9
:1045A00002A800F057FE411C07D02178890603D5E8
:1045B000E269391891420DD80744761C20788006AC
:1045C00002D5E069B84205DDAE42E6DB3AF81600F6
:1045D0000028E2D1A069C01BA0612046FFF7F5FECC
:1045E000D8E90010CDE90010002017E03AF81810C3
:1045F0006A4602A800F02EFEB0F1FF3F81460BD0C4
:1046000000250DF1080B05E0D4E901211BF8050098
:1046100090476D1C4D45F7D308F10100B04280462C
:10462000E4DB206A384420622046FFF7E4FEBDE860
:10463000FF9F0000424000002DE9F0418046D21D5E
:1046400022F007020025D2E90002F52915A614D0B0
:10465000011E72F1000106DA0023D0EB030063EBC8
:10466000020211A608E0D8F800108B0701D50FA6AA
:1046700002E0490701D50EA601251146002408F1E4
:10468000240704E000F08EF930323A55641C50EAF9
:104690000102F7D12B46324621464046BDE8F041A3
:1046A00000F0C5B9000000002D0000002B00000044
:1046B0002000000030B4002100F1240408E002F0E2
:1046C0000705D208303542EA4372DB086554491CBD
:1046D00052EA0305F3D10468002310A2250707D589
:1046E000A40600D421B1C46901230DA2641EC461D3
:1046F00030BC00F09CB910B5044621461068FFF7A5
:1047000094FE02462046BDE810400023D2E7D21DA9
:1047100022F00701D1E90023CCE7000000000000EF
:1047200030000000F0B40D460188090502D5214C87
:104730007C4402E01F4C7C440E34002100F124062E
:1047400008E002F00F071209E75D42EA03721B0955
:104750007754491C52EA0307F3D102780023120769
:1047600004D5702D06D009B1022311342246F0BCC5
:1047700000F05DB901231034F8E770B504460D462A
:1047800021461068FFF751FE024629462046BDE843
:1047900070400023C6E7D21D22F00703D3E90023AF
:1047A000C0E70368126843F0200303600823C36175
:1047B0000023B7E7A43E00002DE9F05F89460446D8
:1047C0004FF0000ADFF874B1FB44C0F820A0204687
:1047D000E1688847002874D0252806D0D4E9012153
:1047E0009047206A401C2062F1E700265F46204681
:1047F000E16888472028054607DB312D05D2781966
:1048000010F8200C08B10643F1E7B00701D526F0F7
:104810000406C4F81CA00027C4F818A02A2D09D04B
:10482000284603F00EF938B304EB8708303DC8F88A
:10483000185019E059F8041B204604EB87029161D7
:10484000E1688847012F054618D1E069002820DA81
:1048500026F020061DE0D8F8180000EB800005EBDC
:1048600040003038C8F818002046E16888470546FF
:1048700003F0E7F80028EED1012F0AD02E2D08D141
:104880002046E16888477F1C0546022F46F0200637
:10489000C4DBA069002803DA404246F00106A061AB
:1048A000F00701D026F010066C2D0BD0682D09D032
:1048B0004C2D39D06A2D35D0742D35D07A2D33D08A
:1048C00016E038E0E1682F4620468847B8420546A2
:1048D00009D16C2F26D04FF48060E1680643204652
:1048E0008847054604E06C2F1AD04FF480700643C9
:1048F0000DB3A5F14100192802D8203546F4006611
:104900004A462946204626604E46FFF74BFC80B1BA
:1049100001280BD0F61D26F0070000F1080956E724
:104920004020E4E78020D8E70020D6E706F104091C
:104930004DE7284652E7206ABDE8F09F343E00006C
:1049400010B5203AC0F00B80B1E81850203AA0E82A
:104950001850B1E81850A0E81850BFF4F5AF5FEA5E
:10496000027C24BFB1E81850A0E8185044BF18C911
:1049700018C0BDE810405FEA827C24BF51F8043BB8
:1049800040F8043B08BF7047D20728BF31F8023B0C
:1049900048BF11F8012B28BF20F8023B48BF00F8A0
:1049A000012B704730B5B0F10A024FEA900E71F159
:1049B00000034EEA817EB0EB0E0061EB91014FEAFD
:1049C000101E4EEA017E10EB0E0041EB11114FEA72
:1049D000102E4EEA016E10EB0E0041EB11214FEA52
:1049E000104E4EEA014E10EB0E0041EB1141401803
:1049F00041F100014FEAD00040EA41704FEAD10195
:104A000010EB80054FEA810444EA907444EB010402
:104A10006D1944EB0404521BA3414FF0000348BF3F
:104A20000A3200D530BD401C41F1000130BD2DE9F6
:104A3000F0470D4699469246044600F12408016865
:104A4000880604D5E06921F01001216000E0012012
:104A5000A84201DD471B00E00027A1697A1902EB9B
:104A60000900081AA0612078C00602D42046FFF78A
:104A7000ACFC002608E0D4E901211AF806009047B2
:104A8000206A401C761C20624E45F4DB2078C0066C
:104A90000AD52046FFF799FC06E0D4E90121302031
:104AA0009047206A401C2062381EA7F10107F4DC01
:104AB00007E0D4E9012118F805009047206A401C5E
:104AC0002062281EA5F10105F3DC2046FFF793FCC8
:104AD0002078000602D50220BDE8F0870120FBE720
:104AE00070472DE9FF4F0C461E464FF0FF378BB045
:104AF000D2E90001DDF860800A908A46C1F30A55C8
:104B000005B93D46002108464FF00000BAF1000FFC
:104B100000F4400005DA00EB80004FF4400101EAA8
:104B200050004FEA9059B9F1010F00DDB9460A98DB
:104B300050EA4A000ED044F61050A5F2FF35454326
:104B40002F14B8F1000F1ED07542291E1EDDC9F1C9
:104B500000021CE0B8F1010F4FF0000001D030213D
:104B600003E0F24305E02154401CB042FBDB304639
:104B70000022002121540B99C1F80880C1E90020CE
:104B80000FB0BDE8F08FBD1B6D1CDEE74A4600DAB2
:104B9000694206A800F0F0FB06AB93E8070003AB00
:104BA00083E8070050460A9900F0ADFC8DE8070045
:104BB000A0F500501F3800900398002D0ADD42F246
:104BC0001F014A460844002303A90390684600F0E9
:104BD00016FF09E0A0F500504A461F38002303A93C
:104BE0000390684600F020FF8DE807000004000CE9
:104BF00003D04FF0FF30410800E01046B8F1000F3D
:104C000003D00022009215461EE0751E05D4FFF762
:104C1000C9FE303262556D1EF9D5B34601220843F4
:104C200002D000227F1C04E02078302801D100222D
:104C30007F1E002A099784D01DE0112D07DAFFF7A7
:104C4000B1FE303262556D1C50EA0102F5D10843C5
:104C500002D00098C8B10EE00021681E05E0235C78
:104C6000625C63542254401E491C8142F7DBAB4610
:104C7000A81B401E0990002004F80B000B98099A0D
:104C8000C0F80880C0E9002B7AE711264FF0000831
:104C900057E72DE9F04F88460446D21D22F0070160
:104CA00091B0D1E90001CDE90A0102F0A6FE024669
:104CB0000B98C00F01D02D2007E02068810701D597
:104CC0002B2002E0202101EAC000032A099001D034
:104CD000072A05DB03464146204600F00DFB0BE1A9
:104CE0002078800601D5E06900E00620B8F1650F64
:104CF000814606D0B8F1660F18D0B8F1670F70D1B1
:104D000031E00020B9F1110F009001DB112301E027
:104D100009F101030AAA01A90CA8FFF7E2FEDDE9E7
:104D20000C70002609F10105834647E001204B463F
:104D300000904FF000470AAA01A90CA8FFF7D1FE86
:104D4000DDE90DB00C995D46002610B909F10100AE
:104D50000D18B9EB050003D4C0F1FF3609F10105C8
:104D6000A5EB09002BE0B9F1010F01DA4FF00109C1
:104D70000020B9F1110F0090484601DD112300E039
:104D800003460AAA01A90CA8FFF7ABFEDDE90C70E7
:104D90004D4600268346207800070AD4AB4500DA4A
:104DA0005D4601A8012D04DD411911F8011C3029CF
:104DB00007D04F4502DA17F1040F04DA01208246CA
:104DC0000FE06D1EEEE7002F02DCED1B3E4403E01A
:104DD000781CA84200DD7D1CB81B00F1010A4FF0D1
:104DE00000472078000703D4AA4501DB4FF0FF3AC3
:104DF0000021B7F1004F0DF143088DF8431024D086
:104E000002202B23002F01DA7F422D230A21021ECC
:104E1000A0F1010000DC5FB197FBF1FC97FBF1F220
:104E200001FB1C7C17460CF1300C08F801CDEEE7B5
:104E3000A8F1010003702188090501D5452100E092
:104E40006521A0F1010800F8011C09980FA9A1EB48
:104E50000807FF1D00B10120411901EBEA70A169AB
:104E60003844081A401EA0612078C00602D42046AB
:104E7000FFF7ABFA099828B1D4E901219047206ADD
:104E8000401C20622078C00622D52046FFF79DFAFC
:104E90001EE0002E04DBB34502DD01A8805D00E0CA
:104EA0003020D4E901219047206A401C2062761C02
:104EB000AAF101005FEA000A0AD100F019FAC068FD
:104EC0000168405CD4E901219047206A401C2062BF
:104ED000281EA5F10105DCDC07E0D4E9012118F862
:104EE000010B9047206A401C2062381EA7F1010781
:104EF000F3DC2046FFF77FFA032011B041E6000003
:104F00002DE9F04F04460D46D21D22F0070089B06E
:104F1000D0E900974846394602F06FFD0246F80F87
:104F200001D02D2307E02068810701D52B2302E063
:104F3000202101EAC0038DF820300BB1012000E0F0
:104F40000020032A824601D0072A04DB2946204696
:104F500000F0D2F93FE12078800601D40D2500E071
:104F6000E569C7F30A560D2D49DA00214FEA175BB0
:104F700008464FF00000002F00F4400007DA00EB75
:104F800080004FF4400100EBD07001EA6000811511
:104F9000012901DD4FF0FF3100224FEA850CBCF101
:104FA000180F06D31346ACF118004FF08052C240E0
:104FB00003E04FF4801323FA0CF30CF10C0CBCF15A
:104FC000200F04D3ACF1200C09FA0CF001E007FA31
:104FD0000CF000294FF0004801DD18B90FE00ED1A8
:104FE00040450CD319EB02095F4121B9404502D17C
:104FF0009F4329EA0209BBEB175F00D0761C20888B
:10500000000502D57B48784402E07A487844193894
:1050100008AA302302F80A30037C0AF10101002EAD
:105020000AF1020A53546A4602DC4FF0300101E0F3
:105030004FF031014FF001088DF8001002D0A6F2B8
:10504000FF3603E059EA470100D06B4E002D02DC29
:105050002178090704D54FF002082E218DF80110A0
:10506000C44600210BE0C7F303433F01C35C491C66
:105070006D1E02F80830052908F1010801DA002D3B
:10508000F1DC00210CE000EB1973491C1B786D1E4C
:10509000082902F808304FEA091908F1010801DA75
:1050A000002DF0DC21688B0602D516E0A8F101087E
:1050B000E04505DD02EB080313F8013C302BF5D089
:1050C000B8F1000F09DD02EB080313F8013C2E2BA9
:1050D00003D1090701D4A8F10108002D05DD3E2107
:1050E00002F808106D1E08F10108407C002E02F83D
:1050F000080008F1010804DA2D20764202F80800C1
:1051000002E02B2002F808000A214FF47A70864250
:1051100008F101080BDB96FBF0F3303302F808309E
:1051200096FBF0F308F1010800FB136601E0642E22
:105130000CDB642096FBF0F3303302F8083096FB6A
:10514000F0F308F1010800FB136601E00A2E06DB0C
:1051500096FBF1F0303002F8080008F1010896FBE8
:10516000F1F001FB1060303002F80800A16908F18D
:10517000010808EB050202EB0A00081AA06120787A
:10518000C00602D42046FFF720F9216A08AE01EBE1
:105190000A00206204E0D4E9012116F8010B9047CF
:1051A000BAF1010AF7D22078C00602D52046FFF7EF
:1051B0000CF96E4609E016F8010B3E280FD0D4E931
:1051C00001219047206A401C2062B8F10108F2D208
:1051D0002046FFF710F909B00320BDE8F08F206AE0
:1051E0002844206203E0D4E90121302090476D1E5D
:1051F000EBD3F8E71A36000002FCFFFF10B5436955
:1052000013B1AFF3008001E0FFF718F9012010BDE2
:10521000127800F124010A7000224A700122EDE7A1
:1052200011684FF0FF32E9E710B5436913B1AFF3EE
:10523000008001E0FFF7A2F9012010BD128800F103
:10524000240182840022C2840122EDE711684FF01C
:10525000FF32E9E770B516460C46054600F040F807
:10526000036893F80101012806D0FF2C0FD8185DC0
:1052700068B101202C7070BDD3F807013246214679
:1052800003F2071303442846BDE8704018474FF067
:10529000FF3070BD754600F0EBF8AE46050069467C
:1052A000534620F00700854618B020B5FEF7F2FF00
:1052B000BDE820404FF000064FF000074FF0000817
:1052C0004FF0000B21F00701AC46ACE8C009ACE898
:1052D000C009ACE8C009ACE8C0098D4670470000C1
:1052E00010B500F005F8001D10BD00BF752C0000C2
:1052F00000487047900600202DE9F0411F46044603
:1053000003260168072A01F4006004DB08B116A532
:1053100005E016A503E008B115A500E015A521F0EC
:1053200010002060A069C01EA0610FB1401EA061E6
:105330002046FFF74AF84FB1D4E90121384690479B
:10534000206A401C2062C01C206206E0206AFAE746
:10535000D4E9012115F8010B9047761EF8D22046BA
:10536000FFF749F8BDE8F0814E414E006E616E00D6
:10537000494E4600696E66002DE9F04781461646A3
:105380008AB0354878440DC88DE80D00324878441D
:10539000801C03AC0DC884E80D0041F69B30084426
:1053A000372190FBF1F290FBF1F5A5F1800501FBAF
:1053B00012041B3C02D56442012000E00020DFF80B
:1053C00098A080460027FA44AAF1BE0A0EE0E00742
:1053D0000AD03246684607EB470101230AEB8101F8
:1053E00000F022FB8DE8070064107F1C002CEED13A
:1053F000194F7F44AE3F19E0E80715D007EB0410C2
:105400000DF1180A90E80E008AE80E00C068F0421C
:1054100001D1981908903246012306A903A800F08B
:1054200003FB03AB83E807006D10641C002DE3D180
:105430004FF0010332466946B8F1000F03A802D0CD
:1054400000F0DDFA01E000F0EFFAC9E90001C9F867
:1054500008200AB0BDE8F0872C33000010B50446E0
:10546000AFF300802046BDE81040FEF7FEBE00000E
:1054700000487047700600204FF0013C50F8042BA4
:1054800051F8043B9A4221D1A2EB0C03934313EA57
:10549000CC1317D150F8042B51F8043B9A4215D184
:1054A000A2EB0C03934313EACC130BD150F8042B5B
:1054B00051F8043B9A4209D1A2EB0C03934313EA3F
:1054C000CC13DBD04FF00000704700BFD01A01BAF8
:1054D000B1FA81F101F0180122FA01F0CB40C1F1DB
:1054E0002001DBB2C0B2C01A2CFA01F3D11A9143E9
:1054F00011EAC311E6D1704701491820ABBEFEE79F
:105500002600020070475FEA400C08BF91F0000FD0
:105510004FEA8C234FEAC12243EA51514FEA1C5013
:1055200018BF00F5F0404FEA300018BF41F00041CD
:105530005FEA6C5C00F02980BCF1FF3F08BF40F0DF
:1055400080407047130C06BF12044FF0100C4FF050
:10555000000C130E04BF12020CF1080C130F04BF51
:1055600012010CF1040C930F04BF92000CF1020C19
:10557000D30F04BF52000CF1010C11464FF0000292
:10558000A0F11F00A0EB0C00704711F0004F08BF06
:10559000704731F000413FF4D5AF0B0C06BF090452
:1055A0004FF0100C4FF0000C0B0E04BF09020CF171
:1055B000080C0B0F04BF09010CF1040C8B0F04BF86
:1055C00089000CF1020CCB0F04BF49000CF1010C57
:1055D000CCF12003A0EB0C0022FA03F302FA0CF248
:1055E00041EA030100F10100704720F07F4C80EA9E
:1055F000030023F07F47ACEB070303F57C5300F077
:10560000004003F1FF032DE980494FEA154B09B42F
:105610004FEA144325EA0B4E24EA03480FF204260E
:1056200006EB132749083E785FEA320203FB066760
:10563000C7F5000707FB06F64FEA54374FEAD64690
:1056400006F1020607FB066CCCF1005C4FEA1C4732
:105650002CEA074C07FB06F40CFB06F504EB154699
:105660004FEA961634BF00204FF000404FEAD13782
:1056700006FB07FC4FEA1C4C0CFB0BF7D21B03FB91
:105680000CF761EB07010CFB0EF7B0EB074072EB78
:1056900017420CFB08F734BFA2EB0742B2EB0742FC
:1056A00061EB17414FEA0C444FEA910706FB07FCF8
:1056B0004FEA1C4C0CFB0BF7B0EBC74072EB5732B8
:1056C00003FB0CF734BFA2EBC742B2EBC74261EB5E
:1056D00057310CFB0EF7B0EBC70072EB57720CFBA7
:1056E00008F734BFA2EBC702B2EBC70261EB5771F8
:1056F000039F4FEA816141EA921104EBCC044FEA27
:10570000D1374FEA826206FB07FC42EA90124FEA69
:1057100080604FEA1C4C0CFB0BF7D21B03FB0CF711
:1057200061EB07010CFB0EF7B0EB074072EB174281
:105730000CFB08F734BFA2EB0742B2EB074261EB68
:1057400017414FEA8C554FEA910704EB9C2406FB66
:1057500007FC4FEA1C4C0CFB0BF7B0EBC74072EB9D
:10576000573203FB0CF734BFA2EBC742B2EBC74280
:1057700061EB57310CFB0EF7B0EBC70072EB5772C1
:105780000CFB08F734BFA2EBC702B2EBC70261EB18
:10579000577115EB4C254FEA816141EA92114FEAAE
:1057A00082624FEAD13742EA901206FB07FC44F1CD
:1057B00000044FEA80604FEA1C4C0CFB0BF7D21B35
:1057C00003FB0CF761EB07010CFB0EF7B0EB074096
:1057D00072EB17420CFB08F734BFA2EB0742B2EBA7
:1057E000074261EB174115EB1C154FEA813141EA85
:1057F00092414FEA823242EA90424FEA80304FEAC9
:105800000C7644F1000448EA03434EEA0B484FF09B
:10581000000EB2EB080C71EB030724BF6246394659
:105820004EEB0E0E4FF0000B0018524149414BEB6E
:105830000B0BB2EB080C71EB03077BF1000B24BFE1
:10584000624639464EEB0E0E4FF0000B00185241E7
:1058500049414BEB0B0BB2EB080C71EB03077BF1EF
:10586000000B24BF624639464EEB0E0E51EA02078A
:1058700018BF46F0010616EB0E7655F1000254F102
:10588000000103D5BDE88901BDE80088BDE88901B4
:10589000BDE80048B619524141EB0101A3F10103F3
:1058A000704780807F7E7D7C7B7A7978777676758D
:1058B0007473727171706F6E6E6D6C6C6B6A6A6905
:1058C0006868676666656464636362616160605F9F
:1058D0005F5E5E5D5D5C5C5B5B5A5A595958585718
:1058E0005756565555555454535352525251515080
:1058F00050504F4F4F4E4E4D4D4D4C4C4C4B4B4BD3
:105900004A4A4A4949494848484747474746464618
:105910004545454444444443434343424242424153
:105920004141002B9C4630D477002BD01CB54FEA68
:10593000370703B44FF010004FF01001BAF1000F19
:1059400006D0BCF1000FDCBF40F0080040F00801B9
:105950004FF000000FBCBDE810400BF1010BBBF194
:10596000010F08BF5FEA170722BF12F1010211F110
:1059700001014FF0004143F1000300F0004043EA11
:1059800000007047F9D35708D0E746EA064613F1FE
:10599000400F4FEA16461FDD13F1200FDFBF1643FD
:1059A0000A46002120335B42BED0C3F1200746EAFD
:1059B000064602FA07F74FEA164646EA0706C3F11B
:1059C000200722FA03F201FA07F721FA03F14FF058
:1059D000000342EA0702A7E746EA020646EA06464D
:1059E0004FEA164646EA0106BCBF46EA0646360CB2
:1059F0004FF000034FF000024FF0000194E72DE953
:105A0000804C9A46934670B491E8380007C831EA52
:105A1000400C48BF34EA430C03D5FFF7E6FDFFF71F
:105A200080FFF0BCBDE8008C2DE9804C9A4693467F
:105A300070B491E8380007C810F0804F08BF13F029
:105A4000804F03D100F005F8FFF76BFFF0BCBDE815
:105A5000008C20F07F4780EA030023F07F4C07EBA7
:105A60000C03A3F57C5300F00040A3F1FE0392F079
:105A7000000F00F0B38095F0000F00F077802DE963
:105A800001494FEA11404FEA144621EA004800FB61
:105A900006FC24EA064708FB06F607FB08F800FBAD
:105AA00007F718EB06484CEB164C4FEA124B18EB75
:105AB00007484FEA15464CEB174022EA0B4E0BFB0A
:105AC00006FC25EA06470EFB06F607FB0EFE0BFB5F
:105AD00007F71EEB064E4CEB164C4FF000061EEB84
:105AE000074E4CEB174B18EB0B0840F1000018EB7E
:105AF0000E0B58EB000840F100008F1A4FF0000128
:105B00003CBFC943661B14BFB5EB040C00213CBF6E
:105B1000C943F61B4FEA17444EEA8E0E27EA0445A6
:105B20004FEA1C4704FB07622CEA074C05FB07F70A
:105B30000CFB05F604FB0CFC16EB074642EB174288
:105B400016EB0C4642EB1C421BEB060658EB02021E
:105B5000414146EA9E0601D5BDE80189B619524188
:105B600041EB0101A3F10103BDE801894FEA1445AE
:105B70004FEA114724EA054621EA074C05FB07F4E2
:105B800006FB07F70CFB06F105FB0CFC11EB0741CC
:105B900044EB17444FEA124711EB0C4144EB1C4411
:105BA00022EA074C05FB07F206FB07F70CFB06F69B
:105BB00005FB0CFC16EB074642EB174216EB0C46B6
:105BC00042EB1C456A1854F1000148BF7047B619F2
:105BD000524141EB0101A3F10103704795F0000F21
:105BE00037D04FEA11424FEA144721EA024624EA2D
:105BF000074C02FB07F106FB07F70CFB06F402FB60
:105C00000CFC14EB074441EB17414FEA154714EB2A
:105C10000C4441EB1C4125EA074C02FB07F506FB4F
:105C200007F70CFB06F602FB0CFC16EB074645EBF0
:105C3000174516EB0C4645EB1C42121951F10001B9
:105C400048BF7047B619524141EB0101A3F101036E
:105C500070474FEA14454FEA114724EA054621EA06
:105C6000074C05FB07F106FB07F70CFB06F24FF0AC
:105C7000000605FB0CFC12EB074241EB174112EB4F
:105C80000C4251EB1C4148BF7047921841EB010197
:105C9000A3F10103704700007FB5254B254E00247A
:105CA0000FCB8DE80F006D46E00705D104EBD470F3
:105CB000C0F3470001F048FC56F82400007A0128A0
:105CC00013D0022827D0032804EBD47020F0010160
:105CD000A4EB010155F824304FEAC1614FEA11618C
:105CE000C0F347000ED014A20DE004EBD47020F0F6
:105CF0000101611AC90655F82430090EC0F34700A6
:105D00000FA200E010A201F077FC01F025FD641C59
:105D1000042CC9DB7FBD04EBD47020F00101611AB3
:105D2000C90655F82430090EC0F3470008A2EAE777
:105D3000B87F0008780000202573657074000000AB
:105D400025736E657700000025736375720000008F
:105D500025736C61730000007FB501F035FF01F021
:105D600075FC134B134E00240FCB8DE80F006D46CE
:105D7000082255F8243003F10801586801F034FF77
:105D800055F82400017A03290BD001290BD00229F0
:105D90000BD001F07DFE641C042CE9DBFFF77CFFD7
:105DA0007FBDB060F7E77060F5E7F060F3E70000F3
:105DB000C87F00085C0000202DE9F041304C0F4600
:105DC0000025E1781646012900D160B3E070A8B340
:105DD000012853D1D4E905010822C860012001F847
:105DE000080F51F8040C01F0BBFF606858B100685F
:105DF00001F0B4FE6068406801F07CFF606801F06B
:105E000047FE60680572A0696060032001F09CFB9A
:105E10001CA20021032001F0EFFB01F09DFCBDE876
:105E2000F041FFF739BF1648183001F011FE002885
:105E300024D0A0690068C4E90405E570B2B239460F
:105E4000206901F08DFF2069304420616069304491
:105E50006061022001F078FB0DA20021022063693D
:105E600001F0CAFB032001F06FFB0BA2002103200D
:105E700001F0C2FBBDE8F04101F06EBCBDE8F0816D
:105E80005C000020636F6465206F7665720000001F
:105E90007265633A25640000636F64696E67000091
:105EA000FEE7000000B58BB00B4800F023FB00209C
:105EB0000590029001900490009003900690079046
:105EC000012008906946044800F01EF802210248AB
:105ED00000F007F80BB000BD88010020704772B6D3
:105EE000FEE790F82020012A07D0022A05D0416A57
:105EF00041F48021416201207047006842690A43F1
:105F0000426100207047000010B590F82030026810
:105F1000012B07D0022B05D0416A41F48021416258
:105F2000012010BDD2F8000240F00100C2F80002CA
:105F3000087D00F01F0301209840D2F81C328343F3
:105F4000C2F81C32CB69B3B9D2F80C328343C2F821
:105F50000C328C894B6864F31F434C6902EBC40418
:105F6000C4F840320C890B6864F31F434C6902EBA0
:105F7000C404C4F84432CB69012B16D1D2F80C32D8
:105F80000343C2F80C320C884B6864F31F434C691E
:105F900002EBC404C4F840320C89CB6864F31F439D
:105FA0004C6902EBC404C4F844328B69002BD2F86C
:105FB00004320FD053EA0003C2F804320B69002BFD
:105FC000D2F8143208D00343C2F81432096A012906
:105FD00004D008E08343EFE78343F5E7D2F81C12CF
:105FE0000143C2F81C12D2F8000220F00100C2F8EE
:105FF0000002002010BD70470246002092F82030B9
:10600000012B01D0022B05D1106821B1D0F810006E
:1060100000F003007047C068FAE770B590F82040C0
:10602000012C05D0022C03D0416A41F4802128E0E4
:10603000046809B32469A40720D04FF4D874056814
:1060400004EB01142D5915F00405956005682D59D0
:106050001AD0ED08556005682C5904F00204D4608C
:106060004FF4DA74056804EB01142E5906F00F069C
:10607000082E0CD308250DE0E468DCE7416A41F402
:1060800000114162012070BD6D0D1560E3E72D59CF
:1060900005F00F05156105682D59C5F307259561B4
:1060A00005682C59240C54614FF4DC72046802EB2F
:1060B0000112A4581C700468A458240A5C70046877
:1060C000A458240C9C700468A258120EDA704FF485
:1060D000DE72046802EB0112A4581C710468A45813
:1060E000240A5C710468A458240C9C710468A258AA
:1060F000120EDA71006829B1016941F020010161D5
:10610000002070BDC16841F02001C160F8E72DE9B1
:10611000F05F0546006800244669D0F8049087685F
:10612000D0F80CB0D0F810A0D0F81880F10748D003
:10613000F90714D001218160B80703D5284600F083
:1061400006FA0CE0780702D54FF4006407E0380740
:1061500002D54FF4805402E0284600F0F7F9F80524
:1061600016D529684FF480708860B80503D5284695
:1061700000F0EFF90CE0780502D544F4005407E094
:10618000380502D544F4804402E0284600F0E0F9E6
:10619000F80316D529684FF480308860B80303D51A
:1061A000284600F0D8F90CE0780302D544F4004406
:1061B00007E0380302D544F4803402E0284600F0BA
:1061C000C9F9300707D55FEACB6004D529681020EC
:1061D00044F40074C86070074FF0080707D55FEA01
:1061E0000B7004D52868C760284600F059F9B0073D
:1061F00006D52868C068800702D0284600F052F90A
:10620000700607D55FEACA6004D52968102044F4F7
:1062100080640861B00607D55FEA0A7004D5286873
:106220000761284600F062F9F00606D52868006983
:10623000800702D0284600F05AF9B00308D55FEA7B
:10624000C96005D5296810204860284600F050F93B
:10625000F00307D55FEA097004D52868476028462F
:1062600000F07AF9300446D55FEA497040D5F00570
:1062700004D55FEAC87001D044F00104B00504D52C
:106280005FEA887001D544F00204700504D55FEA26
:10629000487001D544F00404300529D518F0700F7A
:1062A00026D008F07000402815D006DC102809D050
:1062B00020280AD0302816D10AE050280ED06028B5
:1062C00011D10EE044F008040DE044F010040AE09F
:1062D00044F0200407E044F0400404E044F080046B
:1062E00001E044F480742868816921F070018161C3
:1062F000296804204860002C05D0686A2043686241
:106300002846FFF778FEBDE8F09F70B5040003D083
:1063100094F8200010B104E0012070BD204600F088
:1063200081F82068016841F00101016000F02AFA5B
:106330000546052604E000F025FA401B0A2811D87E
:1063400020684068C007F6D02068016821F002018B
:10635000016000F017FA05460BE000F013FA401B4D
:106360000A2806D9606A40F40030606284F8206030
:10637000D2E7206840688007EFD4207E012820689B
:1063800001683DD021F080010160607E0128206815
:10639000016838D021F040010160A07E012820680A
:1063A000016833D021F020010160E07E01282068DF
:1063B00001682ED041F010010160207F0128206883
:1063C000016829D021F008010160607F0128206860
:1063D000016824D021F004010160D4E902010843DE
:1063E000D4E90412114308436168491E0843216837
:1063F000C86100206062012084F82000002070BD88
:1064000041F08001C0E741F04001C5E741F02001C3
:10641000CAE721F01001CFE741F00801D4E741F0CD
:106420000401D9E710B586B00021009101910291D5
:1064300003910068174988422AD11748C16941F081
:106440000071C161C16901F000710491816941F07D
:10645000040181618069114C00F0040004904FF444
:10646000006000906946204600F08AF8A014009071
:1064700002200190032003906946204600F080F836
:1064800000220821142000F0E9F9142000F0D8F9C6
:1064900006B010BD0064004000100240000801403A
:1064A0007047000030B5054600680D4987B0884246
:1064B00014D100212846FFF79FFD0A4C38B10A4B42
:1064C0006A4600212846FFF7A8FD0498606000F0A6
:1064D00059F9A060012060700020207007B030BD25
:1064E00000640040000000208800002070477047D2
:1064F0007047000070B5044690F82000012804D0D1
:10650000606A40F40020606218E0022084F82000F5
:106510002068016821F00101016000F033F90546AF
:106520000EE000BF00F02EF9401B0A2808D9606A6F
:1065300040F400306062052084F82000012070BD26
:1065400020684068C007EDD1606270BD7047704739
:1065500070477047704770477047000070B5044639
:1065600000F010F90546601C02D00448007804448D
:1065700000F008F9401BA042FAD370BD0C000020C7
:106580002DE9F84FDFF8C8910024A9F1040B234648
:106590000F2709F1040AABF1040ED1E00125A54053
:1065A00006EA0502AA4276D1DFF8A8C14E68A6EB3A
:1065B0000C0866452BD00DDC032E34D005DC36B339
:1065C000012E19D0022E2FD11BE0112E16D0122E23
:1065D0002AD119E0B8F5881F19D006DCB8F5803F3C
:1065E00015D0B8F5801F1FD111E0B8F5001F0ED0EF
:1065F000B8F5041F18D10AE0CB6815E0CB681B1D65
:1066000012E0CB6808330FE0CB680C330CE08B68EA
:106610002BB1012B4FF0080303D0456104E00423A4
:1066200002E0056100E00023FF2A01D8064601E0F0
:1066300000F104064FEA840501D9A5F12005D6F83A
:10664000008007FA05FC28EA0C0803FA05F548EA79
:106650000508C6F800804D68ED0070D53E4DAE6966
:1066600046F00106AE61AD6924F0030605F00105B0
:1066700000953A4D06EB050CDCF80850A607360FDE
:1066800007FA06F825EA0805DFF8D480404503D16B
:106690004FF0000825E052E0DFF8C880404502D105
:1066A0004FF001081DE0DFF8C080404502D14FF0F7
:1066B000020816E0DFF8B480404502D14FF003082D
:1066C0000FE0DFF8AC80404502D14FF0040808E04D
:1066D000DFF8A080404502D14FF0050801E04FF0FF
:1066E000060808FA06F848EA0508CCF808804D685C
:1066F000D9F80060ED024D4601D5164300E09643FF
:106700002E604D68DAF80060AD02554601D516439B
:1067100000E096432E604D68DBF80060AD035D46F7
:1067200001D5164300E096432E604D68DEF8006008
:10673000ED03754601D5164300E096432E60641CB8
:106740000A681646E2407FF429AFBDE8F88F0000E2
:106750000804014000001110001002400000014038
:1067600000080140000C01400010014000140140ED
:1067700000180140001C01400AB101617047090482
:10678000FBE7000001488068704700000C00002013
:106790000248816802781144816070470C00002033
:1067A000074810B5016841F010010160032000F0B6
:1067B00075F80F2000F006F800F024F8002010BD56
:1067C0000020024070B50D4D04464FF47A712878D0
:1067D000B1FBF0F00A490968B1FBF0F000F0C3FD2D
:1067E00048B9102C07D200222146501E00F036F87E
:1067F00000206C6070BD012070BD00000C00002006
:10680000180000200C4808B5816941F00101816140
:10681000816901F001010091C16941F08051C161BC
:10682000C06900F0805000900448416821F0E061A8
:1068300041F00071416008BD0010024000000140BD
:10684000002809DB00F01F0201219140400980006F
:1068500000F1E020C0F8001170470000F0B40E4BCA
:106860001B680C46C3F30223C3F10705042D00D9AE
:106870000425191D072901D2002300E0DB1E012693
:1068800006FA05F1491E214099409E40761E1640A9
:106890003143F0BC01F0C5B80CED00E0064900F052
:1068A000070208684FF6FF03184040EA0220034A37
:1068B00010430860704700000CED00E00000FA058E
:1068C0002DE9F0470F46050061D0434E306800F0D7
:1068D0000700B84209D2306820F007003843306022
:1068E000306800F00700B84251D128683B4C81075E
:1068F00012D5400703D5606840F4E06060602878F6
:10690000000703D5606840F4605060606068A96863
:1069100020F0F000084360602878C00728D068683D
:10692000012810D02168022810D0890700292EDA0A
:10693000616821F0030101436160FFF723FF804696
:1069400041F288390DE021688903EFE78901EDE71D
:10695000FFF718FFA0EB0801494502D90320BDE865
:10696000F0876068696800F00C00B0EB810FEFD130
:10697000306800F00700B8420BD9306820F00700FB
:1069800038433060306800F00700B84201D0012081
:10699000E5E72878400705D56068E96820F4E060FD
:1069A000084360602878000706D56068296920F4EC
:1069B000605040EAC100606000F018F86168084A61
:1069C000C1F30311515CC8400649086006480068DD
:1069D000FFF7F8FE0020C2E700200240001002404E
:1069E000A67F000818000020100000200E4A516801
:1069F0000E4801F00C03042B11D0082B0FD10C48CA
:106A0000C1F38343C903C05C0AD55168084AC1F386
:106A10004041921E515C054A5043B0FBF1F0704773
:106A200004494843704700000010024000127A00F9
:106A3000967F000800093D002DE9F84F040070D052
:106A40002078C04DC00749D06868C0F38100012894
:106A500007D06868C0F38100022809D16868C003C4
:106A600006D52868800339D560680028E7D035E06E
:106A70006068B0F5803F0BD010B1B0F5A02F11D0F9
:106A8000286820F480302860286820F4802002E004
:106A9000286840F480302860606890B1FFF772FE8B
:106AA00006460AE0286840F480202860F0E700BF2E
:106AB000FFF768FE801B642873D828688003F7D529
:106AC0000CE0FFF75FFE064605E000BFFFF75AFE49
:106AD000801B6428F0D828688003F7D420789A4E69
:106AE00080074FF001094FF0000839D5686810F0B1
:106AF0000C0F07D06868C0F38100022809D16868CC
:106B0000C00306D42868800714D52069012808D15D
:106B100010E02069B0B1C6F80090FFF733FE0746D9
:106B200005E00AE1FFF72EFEC01B0228C4D8286842
:106B30008007F7D52868616920F0F80040EAC100B5
:106B400028600DE0C6F80080FFF71CFE074604E051
:106B5000FFF718FEC01B022823D828688007F7D447
:106B6000207800072CD57948A169D9B1C0F80090E8
:106B7000FFF708FE074604E0FFF704FEC01B0228EB
:106B80000FD8686A8007F7D571484FF4FA5100684A
:106B9000B0FBF1F0009000BF0098411E0091FAD2C6
:106BA0000EE080E0C0F80080FFF7ECFD074604E04F
:106BB000FFF7E8FDC01B022875D8686A8007F7D484
:106BC0002078400760D5E8690027C00008D4E8694C
:106BD00040F08050E861E869012700F080500090A3
:106BE0005C480168C90513D40168834641F480718B
:106BF0000160FFF7C7FD824606E000BFFFF7C2FD58
:106C0000A0EB0A0064284ED8DBF80000C005F5D5DB
:106C1000E06801280AD008B1052813D0286A20F0BE
:106C200001002862286A20F0040002E0286A40F08F
:106C300001002862E06841F2883B98B1FFF7A2FDAD
:106C400082460BE0286A40F004002862EEE700BFAD
:106C5000FFF798FDA0EB0A0159455AD8286A80072A
:106C6000F6D50CE0FFF78EFD824605E0FFF78AFDC2
:106C7000A0EB0A0159454CD8286A8007F6D41FB109
:106C8000E86920F08050E861E06988B36968C1F381
:106C90008101022944D00228C6F8608004D0FFF7A1
:106CA00071FD044638E034E0FFF76CFD074604E070
:106CB000FFF768FDC01B02282BD828688001F7D495
:106CC000206AB0F5803F05D16868A16820F40030E3
:106CD00008436860D4E908010843696821F4741125
:106CE00008436860C6F86090FFF74CFD044606E074
:106CF00025E000BFFFF746FD001B022809D82868E1
:106D00008001F7D51BE000BFFFF73CFD001B022808
:106D100002D90320BDE8F88F28688001F4D40EE082
:106D20000128F7D06868226A00F48031914204D1CA
:106D3000616A00F47010884201D00120EAE7002067
:106D4000E8E7000000100240000042428004424296
:106D5000180000200070004070B5040009D0606A7F
:106D6000002540B125616561A56294F8510040B1EC
:106D70000CE0012070BD6068B0F5827FF4D0E56161
:106D8000F2E784F85050204600F040F8022084F8E2
:106D900051002068016821F040010160A08821892C
:106DA00000F4827001F404410843A18901F40061F8
:106DB0000843217C01F002010843217D01F001011B
:106DC0000843218B01F400710843217F01F0380151
:106DD000084394F8201001F080010843218D01F44C
:106DE0000051084321680860A069042101EA1040AD
:106DF000216848602068C16921F40061C16165654E
:106E0000012084F85100002070BD000030B585B02D
:106E100000240094019402940394234D03682348B2
:106E200002210322AB4216D1836943F4805383616C
:106E3000836903F480530493836943F004038361FB
:106E40008069039200F004000490A020CDE90001C5
:106E50006946174823E0174DAB4222D1C36943F47A
:106E60008043C361C36903F480430493836943F09F
:106E7000080383618069104D00F0080004904FF40E
:106E80002040CDE90001039269462846FFF778FBD0
:106E90004FF48040CDE90004694628460294FFF78C
:106EA0006FFB05B030BD0000003001400010024013
:106EB0000008014000380040000C01402DE9F84F67
:106EC000044690F851001D4616460F46012838D159
:106ED00060684FF00408B0F5827F01D1A06830B33C
:106EE000FFF750FC8246002F75D0002E73D094F827
:106EF0005000012825D04FF0010984F8509084F803
:106F000051804FF00008C4F85480A763A687E68735
:106F1000C4F83080A4F83480A4F83680C4F84080E7
:106F2000C4F84480A068B0F5004F0CD015E084F898
:106F30005180009313460A46204600F01CF9BDE834
:106F4000F88F0220FBE72068016821F04001016012
:106F50002068016821F480410160206801684906C9
:106F600003D4016841F040010160E068C0B134E041
:106F700020688168C90709D0007BA16B0870A06BED
:106F8000401CA063E08F401EE08709E0FFF7FAFB9A
:106F9000A0EB0A00A84202D3681C01D032E085B3FE
:106FA000E08F0028E4D11BE020688168C90709D080
:106FB000C068A16B0880A06B801CA063E08F401E9E
:106FC000E0870AE0FFF7DEFBA0EB0A00A84203D34C
:106FD000681C02D016E012E09DB1E08F0028E3D1DA
:106FE00052462946204600F028FC08B12020606562
:106FF00084F8519084F85080606D00289FD0012063
:107000009DE7FFE784F8519084F85080032096E7CD
:107010002DE9F84F984616468A460446FFF7B2FB1C
:10702000814694F8510001281ED1BAF1000F73D0A7
:10703000002E71D094F85000012815D0012784F853
:107040005070032084F8510000256565C4F830A015
:10705000A686E686A563A587E58765642564A0689E
:10706000B0F5004F03D00CE00220BDE8F88F206897
:10707000016821F0400101602068016841F480410D
:10708000016020680168490603D4016841F04001AD
:107090000160E068B0F5006F606803D048B3012E6E
:1070A00027D047E008B1012E1FD1206B216800884E
:1070B000C86006E020688168890709D5216B0988C6
:1070C000C160206B801C2063E08E401EE0860CE0D7
:1070D000FFF758FBA0EB0901414503D3B8F1FF3F8F
:1070E00003D035E0B8F1000F32D0E08E0028E1D1B6
:1070F00023E0206B21680078087306E0206881682F
:1071000089070AD5216B09780173206B401C206325
:10711000E08E401EE0860DE02BE0FFF733FBA0EB96
:107120000901414503D3B8F1FF3F03D010E0B8F1A6
:10713000000F0DD0E08E0028E0D14A46414620469F
:1071400000F0A9FB08B120206065A06830B109E01B
:1071500084F8517084F85050032086E72068C16895
:107160008068009084F8517004F8505F60680028CF
:10717000F3D0012079E72DE9FF4F81B01D469346FA
:1071800004464FF001090E9EFFF7FCFA074694F8FB
:1071900051006168012806D0B1F5827F3CD1A16819
:1071A000C9BB042838D10298002871D0BBF1000F68
:1071B000FBD0002DF9D094F8500001282CD04FF0CE
:1071C000010A84F850A094F85100042802D0052048
:1071D00084F851004FF00008C4F85480C4F838B067
:1071E000E587A58702992163E586A586C4F84080D6
:1071F000C4F8448020680168490603D4016841F05E
:1072000040010160E068B0F5006F606808D0F0B33D
:10721000012D49D081E0FFE7022005B0BDE8F08FE5
:1072200008B1012D39D1206B21680088C860206B1E
:10723000801C2063E08E401EE0862EE0206881687E
:1072400089070FD5E18E69B1B9F1010F0AD1216B20
:107250000988C160206B801C2063E08E401EE086A0
:107260004FF0000920688168C9070CD0E18F51B147
:10727000C068A16B0880A06B801CA063E08F401EDB
:10728000E0874FF00109FFF77DFAC01B01E00BE03A
:1072900067E0B04201D3701C50D1E08E0028CDD100
:1072A000E08F0028CAD13EE0206B21680078087387
:1072B000206B401C2063E08E401EE0862DE020689D
:1072C000816889070FD5E18E69B1B9F1010F0AD143
:1072D000216B09780173206B401C2063E08E401EF7
:1072E000E0864FF0000920688168C9070CD0E18F63
:1072F00051B1C068A16B0870A06B401CA063E08F07
:10730000401EE0874FF00109FFF73CFAC01BB04276
:1073100002D3701C01D011E086B1E08E0028CED1DE
:10732000E08F0028CBD13A463146204600F0B3FA30
:1073300050B12020606584F8508012E084F851A09C
:1073400084F85080032068E7A06818B92068C168F5
:107350008068009084F851A084F85080606D002807
:10736000F1D0012059E710B5401EB0F1807F01D364
:10737000012010BD4FF0E02460610F21601700F084
:1073800050FB0020A06107202061002010BDFEE717
:10739000104810B50E4901600221416000214FF4F0
:1073A00060228160C0E903124FF4801242610176CD
:1073B000012242768276C27601774277FEF7A5FFF8
:1073C000002803D0BDE81040FEF789BD10BD0000C5
:1073D00000640040880100202DE9F04385B00024BE
:1073E00021480094019402940394816941F01001B2
:1073F0008161816901F010010491816941F004010A
:107400008161816901F004010491816941F0080101
:1074100081618069DFF8548000F0080042F2300595
:107420000490002229464046FFF7A6F9DFF8409075
:1074300041F20107002239464846FFF79DF90095C1
:10744000022601250396CDE9015469464046FFF71F
:1074500097F800970396CDE9015469464846FFF72F
:107460008FF805B0BDE8F083001002400010014025
:10747000000C0140104810B50E4901604FF48271B4
:10748000416000218160C1604FF400720161C0E978
:1074900005120822C0E90721416281620A21C16206
:1074A000FFF75AFC002803D0BDE81040FEF717BDD7
:1074B00010BD000000300140B00100200F4810B5A1
:1074C0000D4901604FF48271416000218160C1600B
:1074D0004FF400720161C0E90512C16101624162AD
:1074E00081620A21C162FFF737FC002803D0BDE8A2
:1074F0001040FEF7F4BC10BD003800400802002028
:10750000FEE7FEE770B500240E4E254604F1B000FC
:10751000C0B2002100F03EF90021084600F03AF91F
:107520000021102000F036F9002006EBC4110D54A4
:10753000401CC0B28028FAD3641CE4B2082CE5D306
:1075400070BD0000700200202DE9F04141060C0ED4
:10755000002602210F4F01EB400517E004F1B000B7
:10756000C0B2002100F016F90021084600F012F91F
:107570000021102000F00EF9002007EBC4110E547A
:10758000401CC0B28028FAD3641CE4B2A542E5D8FE
:10759000BDE8F081700200202DE9F04F4FEAC108EC
:1075A0004C42082505EBC101022543005200C0F101
:1075B0000009DFF83CB0DFF83CA005EB4005403A9D
:1075C00012E0D61806EB49060BEBC60740460AEB5D
:1075D000C31606E000EBC40C17F80CC006F800C098
:1075E000401C8142F6DC5B1C9D42EADCBDE8F08F6A
:1075F000D87F0008700200200FB470B592B00D461D
:10760000044619AB41216846189AFCF755FE6E46B0
:107610000FE00A2A14D029462046FFF7BDFF6D1C53
:10762000EDB2761C102D02D3641CE4B20025042CAC
:1076300002D23278002AECD112B070BC5DF814FB93
:10764000641C0025E4B2761CF3E7000010B5414C41
:10765000002210212046FFF78FF8C820FEF77EFF9A
:10766000012210212046FFF787F8C820FEF776FF99
:107670000021AE2000F08EF80021084600F08AF8C4
:107680000021102000F086F80021402000F082F850
:107690000021812000F07EF80021CF2000F07AF850
:1076A0000021A12000F076F80021C82000F072F837
:1076B0000021A62000F06EF80021A82000F06AF852
:1076C00000213F2000F066F80021D32000F062F88E
:1076D0000021084600F05EF80021D52000F05AF89D
:1076E0000021802000F056F80021D92000F052F847
:1076F0000021F12000F04EF80021DA2000F04AF8D5
:107700000021122000F046F80021DB2000F042F8B2
:107710000021302000F03EF80021202000F03AF84F
:107720000021022000F036F800218D2000F032F810
:107730000021142000F02EF80021A42000F02AF8E7
:107740000021AF2000F026F8FFF7DCFEBDE8104076
:1077500000F002B80010014070B50D4D002400BFCC
:1077600004F1B000C0B2002100F014F80021084676
:1077700000F010F80021102000F00CF805EBC41008
:10778000802100F02FF8641C082CE9DB70BD00009C
:107790007002002073B5104C09B1012200E00022F4
:1077A00020212046FEF7E8FF0C4D0022012128464B
:1077B000FEF7E2FF4FF0FF33012269460848FFF76A
:1077C00027FC012211462846FEF7D6FF0122202180
:1077D0002046FEF7D1FF7CBD00100140000C0140A7
:1077E000B00100202DE9F041104E0C460546012263
:1077F00020213046FEF7C0FF0D4F00220121384600
:10780000FEF7BAFF4FF0FF33224629460948FFF73B
:10781000FFFB012211463846FEF7AEFF3046BDE8B9
:10782000F04101222021FEF7A7BF00000010014017
:10783000000C0140B00100207047F8B504464068D4
:107840004FF48273984217D1A0684FF48065B0F569
:10785000004F01D0A8420FD12068066826F04006EC
:1078600006606068984207D1A068A84204D10092DF
:107870000B460022012103E000920B4600228021EA
:10788000204600F023F8002804D0606D40F020006E
:1078900060650320F8BDF8B515460E460B4600920C
:1078A00004460122022100F011F840B933460022BB
:1078B00080212046009500F009F8002804D0606D72
:1078C00040F0200060650320F8BD00002DE9F8437A
:1078D0001E46914688460446089DFEF753FF401B0E
:1078E000351AFEF74FFF074625480068C0F3CB3036
:1078F000684338E0701C37D0FEF744FFC01BA84235
:1079000003D215B1009860B32CE02068416821F0E3
:10791000E00141606068B0F5827F0BD1A068B0F5EE
:10792000004F02D0B0F5806F04D12068016821F0CB
:1079300040010160A06AB0F5005F09D120680168CC
:1079400021F4005101602068016841F40051016098
:10795000012084F85100002084F850000320BDE885
:10796000F8830025401E00902068816838EA0100F5
:1079700004D000214945BDD10020F0E70121F9E7FD
:10798000180000207047FEF703BF30B58FB02821E4
:107990006846FCF7F0FC14210AA8FCF7ECFC012176
:1079A0000804CDE900100024029402250491CDE9D9
:1079B00007504FF4E01009906846FFF73DF808B112
:1079C00072B6FEE70F20CDE90A054FF48060CDE9DD
:1079D0000C4002210AA80E94FEF772FF002801D085
:1079E00072B6FEE70FB030BD704700000148FEF7E9
:1079F0008EBB000088010020FEE7490050EAC1204C
:107A000018BF04204A0D18BF40F0010040F2FF7279
:107A1000B2EB515F08BF40F00200012808BF05200B
:107A200070470907090E002804DB00F1E02080F808
:107A30000014704700F00F0000F1E02080F8141DE2
:107A4000704730380A2801D2012070470020704763
:107A500000B5034600F03AF8012812D00B490A4855
:107A60000A7850F82200521C1860D0B2087004281E
:107A700005D3002008708A78012090438870012087
:107A800000BD002000BD0000600200205C0000205E
:107A900000B5034600F028F8012811D00A4909482A
:107AA0004A7840F82230521CD0B24870042805D3DE
:107AB000002048708A78012090438870012000BD22
:107AC000002000BD600200205C0000200548017815
:107AD0004278914201D1807808B10020704701209E
:107AE000704700005C000020044801784278914211
:107AF00002D18078012800D0002070475C0000206F
:107B0000FEF74EFEFFF741FFFFF766FCFFF740FC74
:107B1000FFF7B0FCFFF7D2FCFEF7C4F9FEF71CF943
:107B200000260C4C4FF47A7701256078012805D1A6
:107B3000626809492078FEF73FF9667020780028CE
:107B4000F3D1FEF71FFEA168401AB842EDD32570AD
:107B50006570EAE70000002088000020F8B5010CFD
:107B60008DF80010010A8DF801108DF8020000F068
:107B7000BBF902E00120FEF7F1FC00F02DF801282E
:107B8000F8D00E4D4FF48054002221462846FEF7CF
:107B9000F3FD4FF47A763346012209490948FFF78D
:107BA00037FA3346032269460648FFF731FA0122C5
:107BB00021462846FEF7E0FDF8BD0000000C01401C
:107BC000CC85000808020020012211030148FEF7BD
:107BD000D3BD0000000C014010B5012000F04EF8AC
:107BE000C00700D0012010BD2DE9F041C2B00D4604
:107BF000044690464FF480716846FCF7BCFB200CAD
:107C00008DF80001200A8DF801018DF8024102E093
:107C10000120FEF7A3FCFFF7DFFF0128F8D0144E88
:107C20004FF48054002221463046FEF7A5FD4FF464
:107C30007A773B4601220F490F48FFF7E9F93B46A7
:107C4000032240A90C48FFF7E3F93B464246694648
:107C50000948FFF733F9012221463046FEF78CFD33
:107C6000424669462846FCF741FB42B0BDE8F08138
:107C7000000C0140C885000808020020F8B51A4F22
:107C800004464FF48056002231463846FEF774FD14
:107C9000002016498DF800004FF47A75012C04D0AD
:107CA000022C07D0032C0AD015E001222B461048E5
:107CB000491C08E001222B460D48891C03E02B4695
:107CC00001220B48C91CFFF7A3F92B460122694684
:107CD0000748FFF7F3F8012231463846FEF74CFD1E
:107CE0009DF80000F8BD0000000C0140C8850008A8
:107CF00008020020F8B5010C8DF80010010A8DF87B
:107D000001108DF8020000F0EFF802E00120FEF70C
:107D100025FCFFF761FF0128F8D00E4D4FF4805489
:107D2000002221462846FEF727FD4FF47A76334697
:107D3000012209490948FFF76BF9334603226946D6
:107D40000648FFF765F9012221462846FEF714FD93
:107D5000F8BD0000000C0140CD850008080200209D
:107D60002DE9F74FC2B0054616464FF480716846BC
:107D7000FCF701FB2E44761EC6F30B00C5F30B0186
:107D8000301A691A401A00F58050C0F30F3B2C4698
:107D900000209CE0C4F30B00201A002100F6FF70C5
:107DA0004091864202D9C1B2401A01E0F0B2301AC5
:107DB000E1B2611A401A00F58070C0F30F2700206D
:107DC0002AE0E0B2211AFF31B14207D2C0F5807239
:107DD000904669462046FFF707FF0AE0301B00F196
:107DE00001081FFA88F269462046FFF7FDFE1FFAD8
:107DF00088F80020694608E00A5CFF2A04D0204683
:107E0000FFF778FF44440AE0401C4045F4DB40980B
:107E1000444420B909F101008146B842D1DB002079
:107E200050E000BF00F060F802E00120FEF796FB92
:107E3000FFF7D2FE0128F8D000224FF480512748E6
:107E4000FEF79AFC4FF47A73012225492548FFF783
:107E5000DFF8280C8DF80001280A8DF8010105F0E3
:107E6000FF098DF802914FF47A73032240A91D484F
:107E7000FFF7CEF8A5EB0900FF30B0420AD2C9F5F2
:107E8000807291464FF47A7316484399FFF7C0F811
:107E90004A460CE0701B00F101091FFA89F24FF409
:107EA0007A7310484399FFF7B3F81FFA89F24398A1
:107EB000154410440122439011030848FEF75CFC6E
:107EC00008F101008046B842ACDB0AF101008246AD
:107ED0005845FFF65FAF45B0BDE8F08F000C01409C
:107EE000CE8500080802002070B502E00120FEF7F0
:107EF00035FBFFF771FE0128F8D00B4D4FF480548D
:107F0000002221462846FEF737FC4FF47A730122FF
:107F100006490748FFF77CF821462846BDE870402F
:107F20000122FEF729BC0000000C0140CF850008AB
:107F30000802002010B500290AD00878002807D0D0
:107F400005487844FDF798FA002801D0002010BDBC
:107F50000248784410BD0000BA070000B2070000D4
:107F600010B500290AD00878002807D005487844C1
:107F7000FDF782FA002801D0002010BD02487844A5
:107F800010BD0000AA070000A2070000FCF781BE98
:107F9000FCF7B6BF010202030405060708090A0B35
:107FA0000C0D0E0F10100000000000000000010278
:107FB0000304060708090000CC860008D0860008E4
:107FC000D4860008D88600081C0000202C00002061
:107FD0003C0000204C0000200000000000000000D9
:107FE0000000000000000000000000F80000000099
:107FF000000000330000000000100C02100C020012
:1080000000000000000000000040C07840C0780080
:1080100000043F04043F040000708888FC0830001E
:1080200000182020FF211E00F008F08060180000DA
:1080300000310C031E211E0000F0088870000000B3
:108040001E21232C19272110000000000000000031
:108050000090700000000000000000E01804020022
:10806000000000071820400000020418E000000093
:108070000040201807000000404080F08040400091
:108080000202010F0102020000000000E0000000F7
:10809000000101010F0101010000000000000000CB
:1080A00000907000000000000000000000000000D0
:1080B00080808080808080800000000000000000C0
:1080C000003030000000000000000000C038040054
:1080D000006018070000000000E010080810E00031
:1080E000000F102020100F0000001010F8000000FA
:1080F000000020203F202000007008080808F00041
:108100000030282422213000003008080888700040
:108110000018202121221C000000804030F80000BF
:1081200000060524243F242400F8888888080800D5
:108130000019202020110E0000E010888890000017
:10814000000F112020201F00001808088868180060
:108150000000003E010000000070880808887000E0
:10816000001C222121221C0000F008080810E00059
:108170000001122222110F00000000C0C000000008
:10818000000000303000000000000080000000000F
:10819000000000E000000000000080402010080007
:1081A0000001020408102000004040404040400010
:1081B00000020202020202000008102040800000BB
:1081C00000201008040201000070480808887000B0
:1081D0000000003037000000C030C828E810E00080
:1081E000071827282F2817000000C038E0000000DB
:1081F000203C23020227382008F888888870000075
:10820000203F202020110E00C03008080808380048
:10821000071820202010080008F808080810E000BF
:10822000203F202020100F0008F88888E808100060
:10823000203F20202320180008F88888E808100034
:10824000203F200003000000C0300808083800006C
:1082500007182020221E020008F808000008F8086D
:10826000203F210101213F20000808F808080000F4
:108270000020203F2020000000000808F808080027
:10828000C08080807F00000008F888C0281808009F
:10829000203F20012638200008F8080000000000D8
:1082A000203F20202020300008F8F800F8F80800CF
:1082B000203F013E013F200008F830C00008F808C8
:1082C000203F200007183F00E01008080810E000D9
:1082D0000F10202020100F0008F808080808F000F0
:1082E000203F210101010000E01008080810E00013
:1082F0000F10282830504F0008F8888888887000B0
:10830000203F2000030C3020007088080808380047
:108310000038202121221C00180808F8080818003D
:108320000000203F2000000008F808000008F808BE
:10833000001F202020201F000878880000C838086F
:10834000000007380E01000008F800F800F80800E7
:1083500000033E013E03000008186880806818088A
:1083600020302C03032C30200838C800C8380800FF
:108370000000203F2000000010080808C83808004E
:108380002038262120201800000000FE02020200F2
:108390000000007F4040400000000000C0380400A2
:1083A000006018070000000000020202FE0000004A
:1083B000004040407F000000000004020204000072
:1083C00000000000000000000000000000000000AD
:1083D000000101010101010000020204000000008F
:1083E000000000000000000000008080800000000D
:1083F00000192424123F200010F0008080000000AB
:10840000003F112020110E0000000080808000003D
:10841000000E112020201100000080808090F000CC
:10842000001F202020103F2000008080808000005E
:10843000001F242424241700008080E09090200056
:108440000020203F202000000000808080808000ED
:10845000006B94949493600010F000808080000082
:10846000203F210000203F2000809898000000005D
:108470000020203F2020000000000080989800008D
:1084800000C08080807F000010F0000080808000AD
:10849000203F240629302000001010F800000000C2
:1084A0000020203F2020000080808080808080008D
:1084B000203F20003F20003F80800080808000001F
:1084C000203F210000203F200000808080800000AD
:1084D000001F202020201F008080008080000000DE
:1084E00080FF912020110E0000000080800080009D
:1084F000000E11202091FF8080808000808080000D
:1085000020203F212000010000008080808080002A
:108510000033242424241900008080E0808000009F
:108520000000001F202010008080000000808000DC
:10853000001F202020103F2080808000808080004D
:1085400000030C300C0300008080008080008080DD
:10855000010E300C0738060100808080008080000A
:108560000020310E2E31200080808000008080802D
:10857000008186781806010000808080808080005D
:108580000021302C222130000000000000FC0202FB
:1085900000000000013E404000000000FF0000001D
:1085A00000000000FF0000000202FC0000000000CC
:1085B00040403E01000000000002010202040200EF
:1085C000000000000000000003053515D820020659
:1085D00000000000000000003031323334353637FF
:1085E00038394142434445464030580030313233F7
:1085F00034353637383961626364656640307800F7
:10860000040000080000000000000002000100005B
:10861000103031323334353637383961626364654E
:10862000667870003031323334353637383941426C
:10863000434445465850000002400000000000A09E
:108640000000000005400000000000C8000000001D
:108650000C4000000000409C000000001940000099
:108660000020BCBE0000000034400000BFC91B8ECB
:1086700000000004B5400000504BCFD06607E2CFA9
:10868000010000006C4100003E8251AADFEEA734D9
:1086900001000000D9420000DCB5A0E23A301F978B
:1086A000FFFFFFFFB4450000FD25A0C8E9A3C14FAF
:1086B000FFFFFFFFFF3F0000000000800000000000
:1086C000FF3F00000000008000000000413A200051
:1086D000423A2000433A2000443A2000288800080B
:1086E00000000020880000006C410008B0880008ED
:1086F00088000020480C0000884100081C00000091
:1087000043000000F8FFFFFF0C0000000E00000017
:108710000F0000002E0000001001000043000000C8
:10872000F8FFFFFF00404040404040404040414192
:108730004141414040404040404040404040404036
:1087400040404040400502020202020202020202D0
:1087500002020202022020202020202020202002CD
:10876000020202020202909090909090101010105D
:1087700010101010101010101010101010101010F9
:10878000020202020202888888888888080808088D
:108790000808080808080808080808080808080859
:1087A0000202020240000000000000000000000081
:1087B00000000000000000000000000000000000B9
:1087C00000000000000000000000000000000000A9
:1087D0000000000000000000000000000000000099
:1087E0000000000000000000000000000000000089
:1087F0000000000000000000000000000000000079
:108800000000000000000000000000000000000068
:108810000000000000000000000000000000000058
:108820000000000000000000010000000000000047
:108830000000000001000000100000000000000027
:1088400000127A000000010000100000000000008B
:1088500000000000000002000020000000000000F6
:1088600000000000000003000030000000000000D5
:1088700000000000000004000040000000000000B4
:1088800000000000000000010000000000000000E7
:1088900000000000000000000000000000000000D8
:1088A0001C0000202C0000203C0000204C00002078
:04000005080041317D
:00000001FF
