:020000040800F2
:10000000C00B0020CD010008F3180008C717000836
:10001000F11800080D070008C31D000800000000CB
:100020000000000000000000000000005D1D00084E
:100030000F07000800000000111C00085F1D0008E9
:10004000E7010008E7010008E7010008E7010008F0
:10005000E7010008E7010008E7010008E7010008E0
:10006000E7010008E7010008E7010008E7010008D0
:10007000E7010008E7010008E7010008E7010008C0
:10008000E7010008E7010008E7010008E7010008B0
:10009000E7010008E7010008E7010008E7010008A0
:1000A000E7010008E7010008E7010008E701000890
:1000B000E7010008E7010008E7010008E701000880
:1000C000E7010008E7010008E7010008E701000870
:1000D000E7010008E7010008E7010008E701000860
:1000E000E7010008E7010008E7010008E701000850
:1000F000E7010008E7010008E7010008E701000840
:10010000E7010008E7010008E7010008E70100082F
:10011000E7010008E7010008E7010008E70100081F
:10012000E7010008E7010008E7010008E70100080F
:1001300000F002F800F03AF80AA090E8000C8244BF
:100140008344AAF10107DA4501D100F02FF8AFF29C
:10015000090EBAE80F0013F0010F18BFFB1A43F0A5
:1001600001031847E426000004270000103A24BFCA
:1001700078C878C1FAD8520724BF30C830C144BF0C
:1001800004680C607047000000230024002500264E
:10019000103A28BF78C1FBD8520728BF30C148BFEA
:1001A0000B6070471FB51FBD10B510BD00F0E2F821
:1001B0001146FFF7F7FF01F03FFE00F000F903B42E
:1001C000FFF7F2FF03BC00F007F900000948804781
:1001D00009480047FEE7FEE7FEE7FEE7FEE7FEE729
:1001E000FEE7FEE7FEE7FEE704480549054A064B41
:1001F00070470000C11D000831010008C005002043
:10020000C00B0020C0070020C0070020B2F120036F
:100210000AD5C2F1200320FA02F001FA03F321FA11
:1002200002F140EA0300704721FA03F04FF00001A9
:100230007047032A40F2308010F0030C00F0158064
:1002400011F8013BBCF1020F624498BF11F801CBD9
:1002500000F8013B38BF11F8013BA2F1040298BF3E
:1002600000F801CB38BF00F8013B11F0030300F0A8
:100270004F80083AC0F0088051F8043B083A51F822
:1002800004CBA0E80810F5E7121D5CBF51F8043B51
:1002900040F8043BAFF30080D20724BF11F8013BC4
:1002A00011F801CB48BF11F8012B24BF00F8013B26
:1002B00000F801CB48BF00F8012B70474FF0000257
:1002C00000B5134694469646203922BFA0E80C504C
:1002D000A0E80C50B1F12001BFF4F7AF090728BF27
:1002E000A0E80C5048BF0CC05DF804EB890028BFA3
:1002F00040F8042B08BF704748BF20F8022B11F0CC
:10030000804F18BF00F8012B704770477047704747
:1003100010B5203AC0F00B80B1E81850203AA0E8A0
:100320001850B1E81850A0E81850BFF4F5AF5FEAD4
:10033000027C24BFB1E81850A0E8185044BF18C987
:1003400018C0BDE810405FEA827C24BF51F8043B2E
:1003500040F8043B08BF7047D20728BF31F8023B82
:1003600048BF11F8012B28BF20F8023B48BF00F816
:10037000012B7047754600F02BF8AE460500694624
:10038000534620F00700854618B020B5FFF72CFF34
:10039000BDE820404FF000064FF000074FF0000886
:1003A0004FF0000B21F00701AC46ACE8C009ACE807
:1003B000C009ACE8C009ACE8C0098D46704710B56B
:1003C0000446AFF300802046BDE81040FFF7F7BEBB
:1003D000004870476005002001491820ABBEFEE7C9
:1003E000260002007047000070B5164DD5E90046A2
:1003F000A4F10051B1F5803F21D2AE421FD3124A81
:1004000096421CD272B600204FF0E021086148618C
:100410008861421E810001F1E021C1F88021C1F80C
:100420008022401C0828F5DB00F0FEF90748056033
:1004300084F3088862B6B446BDE87040604708217E
:10044000017070BD004000080000080808ED00E0E1
:1004500008B501F035FD01F0E5FA00208DF8000047
:100460004FF4FA749DF800000928FBD2DFE800F091
:1004700006142234390505263E00F3E7032001F077
:100480005BFA21A20021032001F0AEFA01F050FB3B
:10049000684600F057F833E0032001F04DFA1CA243
:1004A0000021032001F0A0FA01F042FB684600F0B1
:1004B0007DF825E007208DF80000D3E7032001F048
:1004C0003BFA15A20021032001F08EFA01F030FB67
:1004D0006846FFF789FF13E0032001F02DFA10A210
:1004E00008E0032001F028FA10A203E0032001F045
:1004F00023FA11A20021032001F076FA01F018FB83
:10050000204600F0A1F9ADE75465737400000000C7
:1005100055706461746500004A756D7000000000DC
:1005200045726173652045727200000057726974EC
:10053000652045727200000041707020496E76613E
:100540006C6964002DE9F041174C00210646A1605A
:100550006160E16021706170A1700D4604F11C07BB
:10056000082257F8250000F10801406801F0B8FCA6
:1005700057F82500017A03290CD001290CD0022953
:100580000CD001F02FFC6D1C042DE9DB606838B144
:10059000012006E0A060F6E76060F4E7E060F2E7C3
:1005A00002203070BDE8F081500000202DE9F04FAE
:1005B000544D8146C7B0696808224868083101F087
:1005C0008FFC6868C468002C5ED00121621E4391D4
:1005D0004D4E002001EBD2214496CDE945104290CA
:1005E00000F0E2F946A942A800F040F918B100F085
:1005F00091F9032083E0434835464FF0040A4068F0
:10060000EB46D0F80080FF2C19D94FF480773A469A
:100610006946404601F064FC08F580785FF000060A
:100620000BEB0600294602880120D30F00F07CF96D
:1006300030BBA41EAD1CB61CBE42F1D32CE0A2B24E
:100640006946404601F04CFCA0442746002621E0C4
:10065000701CB8420AD20BEB060029460288012022
:10066000D30F00F061F958B9A41E11E01BF8060081
:10067000294640F47F42D317012000F055F930B1EC
:1006800000F048F989F800A047B0BDE8F08F641E7B
:10069000AD1CB61CBE42DBD3002CB4D100F03AF93D
:1006A000184CE06848B1006801F0D4FBE06840688D
:1006B00001F09CFCE06801F095FBA068E06060B18F
:1006C000D0E90212CDE9401202218DF80011017229
:1006D0004068082240A901F0BFFC6068A06060B1DA
:1006E000D0E90212CDE9401203218DF80011017208
:1006F0004068082240A901F0AFFC0020606089F842
:100700000000C1E75000002000400008FEE77047ED
:1007100072B6FEE706490020C8610648016941F04B
:1007200004010161016941F040010161704700006D
:100730003001002000200240064A0021D161064914
:100740000A6942F002020A614861086940F040000B
:10075000086170473001002000200240044B002255
:10076000DA61044A136943F00103136101807047A1
:10077000300100200020024014480022C168CB064E
:10078000134904D5CA6942F00202CA611022C36843
:100790005B0705D5CB6943F00103CB6142F004024E
:1007A000C369DB0707D0CB6943F00403CB61C169A0
:1007B00021F00101C161A2F58071013901D0C2604F
:1007C0007047C16921F00101C161704700200240FA
:1007D0003001002070B5054600F0FCF90646114CCA
:1007E00009E0681C07D025B100F0F4F9801BA8428D
:1007F00001D9032070BDE068C007F2D1E06880062F
:1008000001D52020E060E068C00605D4E069C0079B
:1008100002D1E068400703D5FFF7AEFF012070BDAD
:10082000002070BD00200240064810B54FF0FF3197
:10083000016100220261C160C26000F00BFA002079
:1008400010BD00000010024070B5044600F0C2F96F
:100850000546601C02D004480078044400F0BAF950
:10086000401BA042FAD370BD000000202DE9F047E4
:10087000054626480F460126017E01290FD0012199
:10088000814601762868DFF888804CF250340228CF
:1008900008D0A2462046FFF79DFFA8B131E0022014
:1008A000BDE8F0872046FFF795FF08BB0120FFF762
:1008B00031FF2046FFF78EFFD8F81010064621F0D2
:1008C0000401C8F810101CE04FF0FF303860AC682D
:1008D00011E02046FFF730FF5046FFF77BFFD8F8C6
:1008E0001010060021F00201C8F8101001D03C6081
:1008F00007E004F50064D5E9020100EBC120A04245
:10090000E7D8002189F818103046C9E730010020E7
:10091000002002400348016941F08001016100208C
:1009200070470000002002402DE9F05F07461C4898
:1009300088460024017E15461E46012909D0012162
:10094000814601764CF2503A5046FFF743FF18B10A
:1009500022E00220BDE8F09F012F02D0022F00D03C
:100960000427D346DFF83CA0220128463146FFF792
:100970004DFC81B208EB4400FFF7F0FE5846FFF74C
:1009800029FFDAF8102022F00102CAF8102018B965
:10099000641CE4B2BC42E7D3002289F81820D9E7EE
:1009A0003001002000200240064900200A6912069A
:1009B00007D5054A4A60054A4A600969090600D513
:1009C000012070470020024023016745AB89EFCD2D
:1009D0002DE9F84FDFF8C8910024A9F1040B234654
:1009E0000F2709F1040AABF1040ED1E00125A5405F
:1009F00006EA0502AA4276D1DFF8A8C14E68A6EB46
:100A00000C0866452BD00DDC032E34D005DC36B344
:100A1000012E19D0022E2FD11BE0112E16D0122E2E
:100A20002AD119E0B8F5881F19D006DCB8F5803F47
:100A300015D0B8F5801F1FD111E0B8F5001F0ED0FA
:100A4000B8F5041F18D10AE0CB6815E0CB681B1D70
:100A500012E0CB6808330FE0CB680C330CE08B68F6
:100A60002BB1012B4FF0080303D0456104E00423B0
:100A700002E0056100E00023FF2A01D8064601E0FC
:100A800000F104064FEA840501D9A5F12005D6F846
:100A9000008007FA05FC28EA0C0803FA05F548EA85
:100AA0000508C6F800804D68ED0070D53E4DAE6972
:100AB00046F00106AE61AD6924F0030605F00105BC
:100AC00000953A4D06EB050CDCF80850A607360FEA
:100AD00007FA06F825EA0805DFF8D480404503D177
:100AE0004FF0000825E052E0DFF8C880404502D111
:100AF0004FF001081DE0DFF8C080404502D14FF003
:100B0000020816E0DFF8B480404502D14FF0030838
:100B10000FE0DFF8AC80404502D14FF0040808E058
:100B2000DFF8A080404502D14FF0050801E04FF00A
:100B3000060808FA06F848EA0508CCF808804D6867
:100B4000D9F80060ED024D4601D5164300E096430A
:100B50002E604D68DAF80060AD02554601D51643A7
:100B600000E096432E604D68DBF80060AD035D4603
:100B700001D5164300E096432E604D68DEF8006014
:100B8000ED03754601D5164300E096432E60641CC4
:100B90000A681646E2407FF429AFBDE8F88F0000EE
:100BA0000804014000001110001002400000014044
:100BB00000080140000C01400010014000140140F9
:100BC00000180140001C01400AB10161704709048E
:100BD000FBE700000148806870470000000000202B
:100BE000024881680278114481607047000000204B
:100BF000074810B5016841F010010160032000F0C2
:100C000069F80F2000F006F800F026F8002010BD6B
:100C10000020024070B50D4D04464FF47A712878DB
:100C2000B1FBF0F00A490968B1FBF0F000F0B7FD44
:100C300048B9102C07D200222146501E00F02AF895
:100C400000206C6070BD012070BD0000000000201D
:100C50000C000020704700000C4808B5816941F085
:100C600001018161816901F001010091C16941F0D7
:100C70008051C161C06900F0805000900448416813
:100C800021F0E06141F00071416008BD00100240B8
:100C900000000140F0B40E4B1B680C46C3F3022366
:100CA000C3F10705042D00D90425191D072901D218
:100CB000002300E0DB1E012606FA05F1491E214053
:100CC00099409E40761E16403143F0BC01F07AB840
:100CD0000CED00E0064900F0070208684FF6FF033C
:100CE000184040EA0220034A1043086070470000A1
:100CF0000CED00E00000FA052DE9F0470F46050075
:100D000061D0434E306800F00700B84209D2306825
:100D100020F0070038433060306800F00700B84228
:100D200051D128683B4C810712D5400703D5606834
:100D300040F4E06060602878000703D5606840F404
:100D4000605060606068A96820F0F000084360604F
:100D50002878C00728D06868012810D021680228A8
:100D600010D0890700292EDA616821F003010143C0
:100D70006160FFF72FFF804641F288390DE021685E
:100D80008903EFE78901EDE7FFF724FFA0EB0801F6
:100D9000494502D90320BDE8F0876068696800F022
:100DA0000C00B0EB810FEFD1306800F00700B842C3
:100DB0000BD9306820F0070038433060306800F00D
:100DC0000700B84201D00120E5E72878400705D5A3
:100DD0006068E96820F4E0600843606028780007F4
:100DE00006D56068296920F4605040EAC10060605F
:100DF00000F018F86168084AC1F30311515CC8405B
:100E00000649086006480068FFF704FF0020C2E7B3
:100E100000200240001002403E2200080C0000208A
:100E2000040000200E4A51680E4801F00C03042B08
:100E300011D0082B0FD10C48C1F38343C903C05C08
:100E40000AD55168084AC1F34041921E515C054AD7
:100E50005043B0FBF1F0704704494843704700002D
:100E60000010024000127A002E22000800093D0006
:100E70002DE9F84F040070D02078C04DC00749D04C
:100E80006868C0F38100012807D06868C0F381005A
:100E9000022809D16868C00306D52868800339D5BF
:100EA00060680028E7D035E06068B0F5803F0BD07F
:100EB00010B1B0F5A02F11D0286820F48030286040
:100EC000286820F4802002E0286840F48030286000
:100ED000606890B1FFF77EFE06460AE0286840F49D
:100EE00080202860F0E700BFFFF774FE801B6428B5
:100EF00073D828688003F7D50CE0FFF76BFE064631
:100F000005E000BFFFF766FE801B6428F0D8286864
:100F10008003F7D420789A4E80074FF001094FF0F4
:100F2000000839D5686810F00C0F07D06868C0F366
:100F30008100022809D16868C00306D428688007A8
:100F400014D52069012808D110E02069B0B1C6F895
:100F50000090FFF73FFE074605E00AE1FFF73AFE83
:100F6000C01B0228C4D828688007F7D528686169A3
:100F700020F0F80040EAC10028600DE0C6F80080CB
:100F8000FFF728FE074604E0FFF724FEC01B0228F7
:100F900023D828688007F7D4207800072CD5794813
:100FA000A169D9B1C0F80090FFF714FE074604E02C
:100FB000FFF710FEC01B02280FD8686A8007F7D51C
:100FC00071484FF4FA510068B0FBF1F0009000BF97
:100FD0000098411E0091FAD20EE080E0C0F8008037
:100FE000FFF7F8FD074604E0FFF7F4FDC01B0228F9
:100FF00075D8686A8007F7D42078400760D5E8691B
:101000000027C00008D4E86940F08050E861E86932
:10101000012700F0805000905C480168C90513D496
:101020000168834641F480710160FFF7D3FD824679
:1010300006E000BFFFF7CEFDA0EB0A0064284ED803
:10104000DBF80000C005F5D5E06801280AD008B13A
:10105000052813D0286A20F001002862286A20F0B1
:10106000040002E0286A40F001002862E06841F2D2
:10107000883B98B1FFF7AEFD82460BE0286A40F04E
:1010800004002862EEE700BFFFF7A4FDA0EB0A0111
:1010900059455AD8286A8007F6D50CE0FFF79AFD23
:1010A000824605E0FFF796FDA0EB0A0159454CD8B2
:1010B000286A8007F6D41FB1E86920F08050E86103
:1010C000E06988B36968C1F38101022944D002282C
:1010D000C6F8608004D0FFF77DFD044638E034E0B8
:1010E000FFF778FD074604E0FFF774FDC01B0228F8
:1010F0002BD828688001F7D4206AB0F5803F05D14D
:101100006868A16820F4003008436860D4E90801E9
:101110000843696821F4741108436860C6F8609058
:10112000FFF758FD044606E025E000BFFFF752FD3B
:10113000001B022809D828688001F7D51BE000BFF2
:10114000FFF748FD001B022802D90320BDE8F88FF5
:1011500028688001F4D40EE00128F7D06868226A7C
:1011600000F48031914204D1616A00F47010884229
:1011700001D00120EAE70020E8E70000001002406B
:1011800000004242800442420C00002000700040F7
:1011900070B5040009D0606A002540B12561656121
:1011A000A56294F8510040B10CE0012070BD606868
:1011B000B0F5827FF4D0E561F2E784F85050204624
:1011C00000F040F8022084F851002068016821F006
:1011D00040010160A088218900F4827001F404417B
:1011E0000843A18901F400610843217C01F0020158
:1011F0000843217D01F001010843218B01F40071B6
:101200000843217F01F03801084394F8201001F0D1
:1012100080010843218D01F40051084321680860D2
:10122000A069042101EA1040216848602068C16972
:1012300021F40061C1616565012084F8510000203E
:1012400070BD000030B585B0002400940194029474
:101250000394234D0368234802210322AB4216D195
:10126000836943F480538361836903F48053049357
:10127000836943F0040383618069039200F00400F2
:101280000490A020CDE900016946174823E0174DDE
:10129000AB4222D1C36943F48043C361C36903F401
:1012A00080430493836943F0080383618069104D90
:1012B00000F0080004904FF42040CDE900010392B3
:1012C00069462846FFF784FB4FF48040CDE90004CF
:1012D000694628460294FFF77BFB05B030BD00004D
:1012E000003001400010024000080140003800407A
:1012F000000C01402DE9F84F044690F851001D46BE
:1013000016460F46012838D160684FF00408B0F542
:10131000827F01D1A06830B3FFF75CFC8246002FCA
:1013200075D0002E73D094F85000012825D04FF0CE
:10133000010984F8509084F851804FF00008C4F8F7
:101340005480A763A687E687C4F83080A4F8348069
:10135000A4F83680C4F84080C4F84480A068B0F592
:10136000004F0CD015E084F85180009313460A46D4
:10137000204600F01CF9BDE8F88F0220FBE720684A
:10138000016821F0400101602068016821F480417A
:10139000016020680168490603D4016841F04001FA
:1013A0000160E068C0B134E020688168C90709D0F5
:1013B000007BA16B0870A06B401CA063E08F401EF7
:1013C000E08709E0FFF706FCA0EB0A00A84202D381
:1013D000681C01D032E085B3E08F0028E4D11BE027
:1013E00020688168C90709D0C068A16B0880A06B1C
:1013F000801CA063E08F401EE0870AE0FFF7EAFB55
:10140000A0EB0A00A84203D3681C02D016E012E049
:101410009DB1E08F0028E3D152462946204600F0D6
:10142000F8FB08B12020606584F8519084F8508062
:10143000606D00289FD001209DE7FFE784F8519060
:1014400084F85080032096E72DE9F84F9846164619
:101450008A460446FFF7BEFB814694F851000128F6
:101460001ED1BAF1000F73D0002E71D094F8500045
:10147000012815D0012784F85070032084F851000A
:1014800000256565C4F830A0A686E686A563A58715
:10149000E58765642564A068B0F5004F03D00CE0D3
:1014A0000220BDE8F88F2068016821F0400101604A
:1014B0002068016841F480410160206801684906A4
:1014C00003D4016841F040010160E068B0F5006FAD
:1014D000606803D048B3012E27D047E008B1012E41
:1014E0001FD1206B21680088C86006E020688168F1
:1014F000890709D5216B0988C160206B801C206396
:10150000E08E401EE0860CE0FFF764FBA0EB0901D3
:10151000414503D3B8F1FF3F03D035E0B8F1000FE8
:1015200032D0E08E0028E1D123E0206B21680078E2
:10153000087306E02068816889070AD5216B09785D
:101540000173206B401C2063E08E401EE0860DE09E
:101550002BE0FFF73FFBA0EB0901414503D3B8F1B6
:10156000FF3F03D010E0B8F1000F0DD0E08E00284F
:10157000E0D14A464146204600F079FB08B12020E0
:101580006065A06830B109E084F8517084F850506B
:10159000032086E72068C1688068009084F8517055
:1015A00004F8505F60680028F3D0012079E72DE946
:1015B000FF4F81B01D46934604464FF001090E9E31
:1015C000FFF708FB074694F851006168012806D030
:1015D000B1F5827F3CD1A168C9BB042838D10298FB
:1015E000002871D0BBF1000FFBD0002DF9D094F88A
:1015F000500001282CD04FF0010A84F850A094F834
:101600005100042802D0052084F851004FF0000852
:10161000C4F85480C4F838B0E587A58702992163DF
:10162000E586A586C4F84080C4F844802068016837
:10163000490603D4016841F040010160E068B0F55B
:10164000006F606808D0F0B3012D49D081E0FFE75A
:10165000022005B0BDE8F08F08B1012D39D1206B13
:1016600021680088C860206B801C2063E08E401ECB
:10167000E0862EE02068816889070FD5E18E69B188
:10168000B9F1010F0AD1216B0988C160206B801C60
:101690002063E08E401EE0864FF0000920688168DC
:1016A000C9070CD0E18F51B1C068A16B0880A06B55
:1016B000801CA063E08F401EE0874FF00109FFF718
:1016C00089FAC01B01E00BE067E0B04201D3701C57
:1016D00050D1E08E0028CDD1E08F0028CAD13EE065
:1016E000206B216800780873206B401C2063E08E1B
:1016F000401EE0862DE02068816889070FD5E18EC5
:1017000069B1B9F1010F0AD1216B09780173206B1E
:10171000401C2063E08E401EE0864FF000092068E8
:101720008168C9070CD0E18F51B1C068A16B087006
:10173000A06B401CA063E08F401EE0874FF00109C2
:10174000FFF748FAC01BB04202D3701C01D011E071
:1017500086B1E08E0028CED1E08F0028CBD13A466A
:101760003146204600F083FA50B12020606584F8AD
:10177000508012E084F851A084F85080032068E77C
:10178000A06818B92068C1688068009084F851A0EA
:1017900084F85080606D0028F1D0012059E710B521
:1017A000401EB0F1807F01D3012010BD4FF0E02436
:1017B00060610F21601700F005FB0020A061072089
:1017C0002061002010BDFEE72DE9F04385B0002424
:1017D00021480094019402940394816941F010011E
:1017E0008161816901F010010491816941F0040176
:1017F0008161816901F004010491816941F008016E
:1018000081618069DFF8548000F0080042F2300501
:101810000490002229464046FFF7D6F9DFF84090B1
:1018200041F20107002239464846FFF7CDF90095FD
:10183000022601250396CDE9015469464046FFF78B
:10184000C7F800970396CDE9015469464846FFF76B
:10185000BFF805B0BDE8F083001002400010014061
:10186000000C0140104810B50E4901604FF4827120
:10187000416000218160C1604FF400720161C0E9E4
:1018800005120822C0E90721416281620A21C16272
:10189000FFF77EFC002803D0BDE81040FEF738BFFC
:1018A00010BD0000003001407C0000200F4810B542
:1018B0000D4901604FF48271416000218160C16077
:1018C0004FF400720161C0E90512C1610162416219
:1018D00081620A21C162FFF75BFC002803D0BDE8EA
:1018E0001040FEF715BF10BD00380040D4000020A6
:1018F000FEE7FEE770B500240E4E254604F1B00069
:10190000C0B2002100F032F90021084600F02EF9A3
:101910000021102000F02AF9002006EBC4110D541C
:10192000401CC0B28028FAD3641CE4B2082CE5D372
:1019300070BD0000600100202DE9F04141060C0E51
:10194000002602210F4F01EB400517E004F1B00023
:10195000C0B2002100F00AF90021084600F006F9A3
:101960000021102000F002F9002007EBC4110E54F2
:10197000401CC0B28028FAD3641CE4B2A542E5D86A
:10198000BDE8F081600100202DE9F04F4FEAC10869
:101990004C42082505EBC101022543005200C0F16D
:1019A0000009DFF83CB0DFF83CA005EB4005403A09
:1019B00012E0D61806EB49060BEBC60740460AEBC9
:1019C000C31606E000EBC40C17F80CC006F800C004
:1019D000401C8142F6DC5B1C9D42EADCBDE8F08FD6
:1019E0004E2200086001002070B516460D460446E0
:1019F0000FE00A2A11D029462046FFF7C5FF6D1CCB
:101A0000EDB2761C102D02D3641CE4B20025042C28
:101A100002D23278002AECD170BD641C0025E4B2F9
:101A2000761CF6E710B5414C002210212046FFF746
:101A3000CBF8C820FEF708FF012210212046FFF74F
:101A4000C3F8C820FEF700FF0021AE2000F08EF89A
:101A50000021084600F08AF80021102000F086F8E6
:101A60000021402000F082F80021812000F07EF863
:101A70000021CF2000F07AF80021A12000F076F8B4
:101A80000021C82000F072F80021A62000F06EF8B6
:101A90000021A82000F06AF800213F2000F066F83D
:101AA0000021D32000F062F80021084600F05EF823
:101AB0000021D52000F05AF80021802000F056F8CF
:101AC0000021D92000F052F80021F12000F04EF85A
:101AD0000021DA2000F04AF80021122000F046F838
:101AE0000021DB2000F042F80021302000F03EF819
:101AF0000021202000F03AF80021022000F036F802
:101B000000218D2000F032F80021142000F02EF882
:101B10000021A42000F02AF80021AF2000F026F8D0
:101B2000FFF7E8FEBDE8104000F002B800100140E9
:101B300070B50D4D002400BF04F1B000C0B200210B
:101B400000F014F80021084600F010F800211020E1
:101B500000F00CF805EBC410802100F02FF8641C95
:101B6000082CE9DB70BD00006001002073B5104C4B
:101B700009B1012200E0002220212046FFF724F8CD
:101B80000C4D002201212846FFF71EF84FF0FF33CD
:101B9000012269460848FFF757FC012211462846F2
:101BA000FFF712F8012220212046FFF70DF87CBD37
:101BB00000100140000C01407C0000202DE9F041A4
:101BC000104E0C460546012220213046FEF7FCFF50
:101BD0000D4F002201213846FEF7F6FF4FF0FF338C
:101BE000224629460948FFF72FFC012211463846B4
:101BF000FEF7EAFF3046BDE8F04101222021FEF762
:101C0000E3BF000000100140000C01407C000020F8
:101C10007047F8B5044640684FF48273984217D174
:101C2000A0684FF48065B0F5004F01D0A8420FD1F5
:101C30002068066826F0400606606068984207D172
:101C4000A068A84204D100920B460022012103E0C3
:101C500000920B4600228021204600F023F8002845
:101C600004D0606D40F0200060650320F8BDF8B539
:101C700015460E460B46009204460122022100F052
:101C800011F840B93346002280212046009500F02B
:101C900009F8002804D0606D40F020006065032042
:101CA000F8BD00002DE9F8431E46914688460446DB
:101CB000089DFEF78FFF401B351AFEF78BFF074686
:101CC00025480068C0F3CB30684338E0701C37D03B
:101CD000FEF780FFC01BA84203D215B1009860B385
:101CE0002CE02068416821F0E00141606068B0F5B7
:101CF000827F0BD1A068B0F5004F02D0B0F5806FA5
:101D000004D12068016821F040010160A06AB0F5AB
:101D1000005F09D12068016821F40051016020684A
:101D2000016841F400510160012084F85100002055
:101D300084F850000320BDE8F8830025401E009081
:101D40002068816838EA010004D000214945BDD1EE
:101D50000020F0E70121F9E70C0000207047FEF7B2
:101D60003FBF30B58FB028216846FEF7A7FA14218F
:101D70000AA8FEF7A3FA01210804CDE90010002407
:101D8000029402250491CDE907504FF4E010099028
:101D90006846FFF76DF808B172B6FEE70F20CDE98F
:101DA0000A054FF48060CDE90C4002210AA80E9488
:101DB000FEF7A2FF002801D072B6FEE70FB030BDDB
:101DC0007047FEE70907090E002804DB00F1E02058
:101DD00080F80014704700F00F0000F1E02080F858
:101DE000141D704700B5034600F01AF8012811D001
:101DF0000A4909484A7840F82230521CD0B248704B
:101E0000042805D3002048708A7801209043887008
:101E1000012000BD002000BD500100205000002026
:101E2000044801784278914202D18078012800D09C
:101E30000020704750000020FEF7DAFEFFF791FF08
:101E4000FFF7C2FCFFF732FDFFF70CFDFEF700FBCA
:101E5000FEE70000F8B5010C8DF80010010A8DF8BE
:101E600001108DF8020000F0BBF902E00120FEF73E
:101E7000EBFC00F02DF80128F8D00E4D4FF4805403
:101E8000002221462846FEF79FFE4FF47A7633461D
:101E9000012209490948FFF7D7FA33460322694668
:101EA0000648FFF7D1FA012221462846FEF78CFEAC
:101EB000F8BD0000000C014042280008D4000020BA
:101EC000012211030148FEF77FBE0000000C014013
:101ED00010B5012000F04EF8C00700D0012010BD61
:101EE0002DE9F041C2B00D46044690464FF4807192
:101EF0006846FEF7E3F9200C8DF80001200A8DF802
:101F000001018DF8024102E00120FEF79DFCFFF780
:101F1000DFFF0128F8D0144E4FF4805400222146F0
:101F20003046FEF751FE4FF47A773B4601220F49C7
:101F30000F48FFF789FA3B46032240A90C48FFF7F8
:101F400083FA3B46424669460948FFF7D3F9012226
:101F500021463046FEF738FE424669462846FEF7DF
:101F600068F942B0BDE8F081000C01403E2800084D
:101F7000D4000020F8B51A4F04464FF480560022D2
:101F800031463846FEF720FE002016498DF8000045
:101F90004FF47A75012C04D0022C07D0032C0AD000
:101FA00015E001222B461048491C08E001222B466F
:101FB0000D48891C03E02B4601220B48C91CFFF782
:101FC00043FA2B46012269460748FFF793F901229D
:101FD00031463846FEF7F8FD9DF80000F8BD0000D8
:101FE000000C01403E280008D4000020F8B5010C88
:101FF0008DF80010010A8DF801108DF8020000F034
:10200000EFF802E00120FEF71FFCFFF761FF012857
:10201000F8D00E4D4FF48054002221462846FEF79A
:10202000D3FD4FF47A763346012209490948FFF778
:102030000BFA3346032269460648FFF705FA0122E8
:1020400021462846FEF7C0FDF8BD0000000C014007
:1020500043280008D40000202DE9F74FC2B0054600
:1020600016464FF480716846FEF728F92E44761E16
:10207000C6F30B00C5F30B01301A691A401A00F5BC
:102080008050C0F30F3B2C4600209CE0C4F30B00B3
:10209000201A002100F6FF704091864202D9C1B299
:1020A000401A01E0F0B2301AE1B2611A401A00F5AC
:1020B0008070C0F30F2700202AE0E0B2211AFF3120
:1020C000B14207D2C0F58072904669462046FFF7BC
:1020D00007FF0AE0301B00F101081FFA88F2694689
:1020E0002046FFF7FDFE1FFA88F80020694608E049
:1020F0000A5CFF2A04D02046FFF778FF44440AE038
:10210000401C4045F4DB4098444420B909F10100EB
:102110008146B842D1DB002050E000BF00F060F8FB
:1021200002E00120FEF790FBFFF7D2FE0128F8D075
:1021300000224FF480512748FEF746FD4FF47A7392
:10214000012225492548FFF77FF9280C8DF8000169
:10215000280A8DF8010105F0FF098DF802914FF46E
:102160007A73032240A91D48FFF76EF9A5EB090019
:10217000FF30B0420AD2C9F5807291464FF47A73AB
:1021800016484399FFF760F94A460CE0701B00F1CE
:1021900001091FFA89F24FF47A7310484399FFF747
:1021A00053F91FFA89F243981544104401224390D1
:1021B00011030848FEF708FD08F101008046B84207
:1021C000ACDB0AF1010082465845FFF65FAF45B02F
:1021D000BDE8F08F000C014044280008D400002026
:1021E00070B502E00120FEF72FFBFFF771FE01281A
:1021F000F8D00B4D4FF48054002221462846FEF7BC
:10220000E3FC4FF47A73012206490748FFF71CF9F3
:1022100021462846BDE870400122FEF7D5BC0000EB
:10222000000C014045280008D400002001020203F0
:102230000405060708090A0B0C0D0E0F101000000C
:102240000000000000000102030406070809000066
:10225000000000000000000000000000000000007E
:1022600000F8000000000000003300000000001033
:102270000C02100C020000000000000000000040F2
:10228000C07840C0780000043F04043F04000070A0
:102290008888FC08300000182020FF211E00F0086C
:1022A000F0806018000000310C031E211E0000F0B9
:1022B0000888700000001E21232C1927211000001F
:1022C000000000000000009070000000000000000E
:1022D00000E018040200000000071820400000027F
:1022E0000418E000000000402018070000004040F3
:1022F00080F0804040000202010F01020200000055
:102300000000E0000000000101010F0101010000D8
:1023100000000000000000907000000000000000BD
:1023200000000000000080808080808080800000AD
:10233000000000000000003030000000000000003D
:102340000000C0380400006018070000000000E032
:1023500010080810E000000F102020100F000000EF
:102360001010F8000000000020203F202000007026
:1023700008080808F000003028242221300000302E
:102380000808088870000018202121221C00000085
:10239000804030F8000000060524243F242400F883
:1023A0008888880808000019202020110E0000E00D
:1023B000108888900000000F112020201F000018B6
:1023C0000808886818000000003E01000000007046
:1023D000880808887000001C222121221C0000F0BF
:1023E00008080810E0000001122222110F0000006E
:1023F00000C0C000000000000030300000000000FD
:10240000008000000000000000E00000000000006C
:102410008040201008000001020408102000004045
:102420004040404040000002020202020200000858
:1024300010204080000000201008040201000070FD
:102440004808088870000000003037000000C030E5
:10245000C828E810E000071827282F2817000000D8
:10246000C038E0000000203C23020227382008F892
:10247000888888700000203F202020110E00C03086
:10248000080808083800071820202010080008F85D
:1024900008080810E000203F202020100F0008F856
:1024A0008888E8081000203F20202320180008F822
:1024B0008888E8081000203F200003000000C0309A
:1024C00008080838000007182020221E020008F81B
:1024D00008000008F808203F210101213F200008E2
:1024E00008F8080800000020203F2020000000001D
:1024F0000808F8080800C08080807F00000008F805
:1025000088C028180800203F20012638200008F83D
:10251000080000000000203F20202020300008F8A4
:10252000F800F8F80800203F013E013F200008F8BD
:1025300030C00008F808203F200007183F00E010D6
:1025400008080810E0000F10202020100F0008F8E5
:1025500008080808F000203F210101010000E010F8
:1025600008080810E0000F10282830504F0008F825
:10257000888888887000203F2000030C302000707D
:102580008808080838000038202121221C0018087B
:1025900008F8080818000000203F2000000008F894
:1025A00008000008F808001F202020201F000878DD
:1025B000880000C83808000007380E01000008F83D
:1025C00000F800F8080000033E013E030000081870
:1025D00068808068180820302C03032C30200838CD
:1025E000C800C83808000000203F20000000100884
:1025F0000808C838080020382621202018000000CC
:1026000000FE020202000000007F40404000000087
:102610000000C0380400006018070000000000023D
:102620000202FE000000004040407F000000000069
:10263000040202040000000000000000000000008E
:102640000000000000000001010101010100000282
:102650000204000000000000000000000000000074
:1026600080808000000000192424123F200010F018
:10267000008080000000003F112020110E000000AB
:10268000008080800000000E11202020110000003A
:1026900080808090F000001F202020103F2000004C
:1026A000808080800000001F2424242417000080E4
:1026B00080E0909020000020203F202000000000BB
:1026C000808080808000006B94949493600010F070
:1026D000008080800000203F210000203F200080FB
:1026E0009898000000000020203F202000000000FB
:1026F00000809898000000C08080807F000010F06B
:10270000000080808000203F240629302000001037
:1027100010F8000000000020203F202000008080F2
:10272000808080808000203F20003F20003F80800C
:10273000008080800000203F210000203F2000001A
:10274000808080800000001F202020201F008080CB
:1027500000808000000080FF912020110E0000000A
:10276000008080008000000E11202091FF8080807A
:1027700080008080800020203F2120000100000098
:10278000808080808000003324242424190000806D
:1027900080E0808000000000001F2020100080806A
:1027A000000000808000001F202020103F2080803B
:1027B00080008080800000030C300C0300008080CB
:1027C000008080008080010E300C073806010080F8
:1027D0008080008080000020310E2E31200080801B
:1027E00080000080808000818678180601000080CB
:1027F0008080808080000021302C22213000000069
:10280000000000FC020200000000013E4040000009
:102810000000FF00000000000000FF0000000202B6
:10282000FC000000000040403E01000000000002EB
:102830000102020402000000000000000000030585
:102840003515D82002060000682800080000002086
:102850007C0000006C010008E42800087C000020D7
:10286000440B000088010008010000001000000077
:102870000000000000127A000000010000100000BB
:102880000000000000000000000002000020000026
:102890000000000000000000000003000030000005
:1028A00000000000000000000000040000400000E4
:1028B0000000000000000000000000010000000017
:1028C0000000000000000000000000000000000008
:1028D0000000000010000020200000203000002038
:0428E0004000002094
:0400000508000131BD
:00000001FF
